:100000000C948A000C94B2000C94B2000C94B200D0
:100010000C94B2000C94B2000C94B2000C94B20098
:100020000C94B2000C94B2000C94B2000C94B20088
:100030000C94B2000C94B2000C94B2000C94B20078
:100040000C9493050C94B2000C9403060C94DD05FB
:100050000C94B2000C94B2000C94B2000C94B20058
:100060000C94B2000C94B2000000000023002600A3
:1000700029004142434445464748494A4B4C4D4E6E
:100080004F505152535455565758595A00E402BADA
:1000900002BF02D402CC02C402D902C902CB02CEF2
:1000A00002DE02D302EE02C602CF02D802DD02C592
:1000B00002CA02E502E302E202ED02E702EC02F10B
:1000C0000200000000240027002A00000000002594
:1000D0000028002B000404040404040404020202A7
:1000E0000202020303030303030102040810204079
:1000F0008001020408102001020408102000000002
:1001000008000201000003040700000000000000D6
:100110000000350611241FBECFEFD8E0DEBFCDBFF3
:1001200023E0A6EFB2E001C01D92AF3EB207E1F7B7
:1001300012E0A0E0B1E0E2E3F8E102C005900D9228
:10014000A63FB107D9F710E0CAE8D0E004C0219774
:10015000FE010E94160AC938D107C9F70E947F061E
:100160000C94170C0C940000833081F028F481303B
:1001700099F08230A9F008958730A9F08830C9F04D
:100180008430B1F4809180008F7D03C08091800025
:100190008F7780938000089584B58F7784BD08950C
:1001A00084B58F7DFBCF8091B0008F778093B000B6
:1001B00008958091B0008F7DF9CF1F93CF93DF9387
:1001C000282F30E0F901E350FF4F8491F901E75106
:1001D000FF4FD491F901EB52FF4FC491CC23A9F00A
:1001E000162F81110E94B400EC2FF0E0EE0FFF1FDC
:1001F000E553FF4FA591B4918FB7F894EC9111118D
:1002000008C0D095DE23DC938FBFDF91CF911F9183
:100210000895DE2BF8CFCF93DF9390E0FC01E751F8
:10022000FF4F24918B529F4FFC0184918823D1F082
:1002300090E0880F991FFC01EF53FF4FA591B491F7
:10024000FC01E553FF4FC591D49161110EC09FB7DA
:10025000F8948C91E22FE0958E238C932881E223F1
:10026000E8839FBFDF91CF9108958FB7F894EC9109
:10027000E22BEC938FBFF6CF3FB7F89480912D031C
:1002800090912E03A0912F03B091300326B5A89B27
:1002900005C02F3F19F00196A11DB11D3FBFBA2F18
:1002A000A92F982F8827BC01CD01620F711D811DD8
:1002B000911D42E0660F771F881F991F4A95D1F75D
:1002C00008958F929F92AF92BF92CF92DF92EF925A
:1002D000FF920E943C014B015C0184EFC82EDD249B
:1002E000D394E12CF12C0E943C01681979098A0908
:1002F0009B09683E734081059105A8F321E0C21A6D
:10030000D108E108F10888EE880E83E0981EA11C50
:10031000B11CC114D104E104F10429F7FF90EF905E
:10032000DF90CF90BF90AF909F908F900895AF9245
:10033000BF92CF92DF92EF92FF920F931F93CF93D2
:10034000DF936C017B018B01040F151FEB015E0134
:10035000AE18BF08C017D10759F06991D601ED91C9
:10036000FC910190F081E02DC6010995892B79F768
:10037000C501DF91CF911F910F91FF90EF90DF901A
:10038000CF90BF90AF900895FC01538D448D252FE1
:1003900030E0842F90E0821B930B541710F0CF961F
:1003A000089501970895FC01918D828D981761F051
:1003B000A28DAE0FBF2FB11D5D968C91928D9F5F68
:1003C0009F73928F90E008958FEF9FEF0895FC0147
:1003D000918D828D981731F0828DE80FF11D858DFA
:1003E00090E008958FEF9FEF0895FC01918D228D8D
:1003F000892F90E0805C9F4F821B91098F73992712
:10040000089586E393E00E94F50121E0892B09F429
:1004100020E0822F089580E090E0892B29F00E944F
:10042000010281110C9400000895FC01A48DA80F15
:10043000B92FB11DA35ABF4F2C91848D90E0019626
:100440008F739927848FA689B7892C93A089B18946
:100450008C91837080648C93938D848D981306C0E7
:100460000288F389E02D80818F7D80830895EF924B
:10047000FF920F931F93CF93DF93EC0181E0888F5E
:100480009B8D8C8D98131AC0E889F989808185FF2E
:1004900015C09FB7F894EE89FF896083E889F989D0
:1004A00080818370806480839FBF81E090E0DF91D2
:1004B000CF911F910F91FF90EF900895F62E0B8D25
:1004C00010E00F5F1F4F0F731127E02E8C8D8E11E0
:1004D0000CC00FB607FCFACFE889F989808185FF47
:1004E000F5CFCE010E941502F1CFEB8DEC0FFD2F61
:1004F000F11DE35AFF4FF0829FB7F8940B8FEA8902
:10050000FB8980818062CFCFCF93DF93EC01888D10
:100510008823B9F0AA89BB89E889F9898C9185FD7E
:1005200003C0808186FD0DC00FB607FCF7CF8C910C
:1005300085FFF2CF808185FFEDCFCE010E941502AD
:10054000E9CFDF91CF910895089590E080E008957C
:10055000FB0101900020E9F73197AF01461B570BD3
:10056000DC01ED91FC910280F381E02D09948F92E2
:100570009F92AF92BF920F931F93CF93DF93CDB70C
:10058000DEB7A1970FB6F894DEBF0FBECDBF19A29C
:10059000423008F44AE08E010F5D1F4F842E912CEB
:1005A000B12CA12CA50194010E94F409E62FB901F8
:1005B000CA01EA3004F5E05DD801EE938D01232BEA
:1005C000242B252B79F790E080E0109729F0BD01CE
:1005D00086E393E00E94A802A1960FB6F894DEBFCE
:1005E0000FBECDBFDF91CF911F910F91BF90AF9004
:1005F0009F908F900895E95CDFCFCF93DF93BC018C
:1006000086E393E00E94A802EC016BE571E086E3CB
:1006100093E00E94A8028C0F9D1FDF91CF91089557
:10062000CF93DF93682F86E393E00E943702EC01BB
:100630006BE571E086E393E00E94A8028C0F9D1F9A
:10064000DF91CF9108950C94A802CF93C82F81E336
:1006500093E0FC0101900020E9F7CF018253934021
:1006600083309105A0F4FC01EF5CFC4FC0838E5CED
:100670009C4FFC0110826EE571E086E393E00E94DE
:1006800023038C2F0E94100381E0CF91089588E707
:1006900091E00E94FD0280E0F8CFCF92DF92EF92CE
:1006A000FF92CF93DF936C01990FEE08FF08F7FEDE
:1006B00021C06DE286E393E00E943702EC016627D9
:1006C0007727CB016C197D098E099F094AE00E94AA
:1006D000B702C80FD91F6BE571E086E393E00E9473
:1006E000A8028C0F9D1FDF91CF91FF90EF90DF90BC
:1006F000CF9008954AE0C701B6010E94B702EC010D
:10070000EACFCF93DF93EC0160E08E810E94DD00A1
:1007100061E08E810E94DD0060E08E810E94DD003C
:100720008BE891E00197F1F7DF91CF910895CF9297
:10073000DF92EF92FF920F931F93CF93DF936C01A1
:100740007C0187E0E80EF11CD0E0C0E0062F10E04D
:10075000B8010C2E02C0759567950A94E2F7617096
:10076000F70181917F010E94DD002196C430D105FF
:1007700079F7C601DF91CF911F910F91FF90EF9014
:10078000DF90CF900C948103CF92DF92EF92FF9293
:100790000F931F93CF93DF93EC01F62E642F8C8180
:1007A0000E94DD008D818F3F19F060E00E94DD0026
:1007B0000F2D10E08F8584FF25C06E0187E0C80EE5
:1007C000D11CF12CE12CB8010E2C02C07595679557
:1007D0000A94E2F76170F60181916F010E94DD00D9
:1007E000FFEFEF1AFF0A88E0E816F10461F7CE0187
:1007F000DF91CF911F910F91FF90EF90DF90CF90FD
:100800000C948103B80184E0759567958A95E1F7AA
:10081000CE010E9497036F2DCE01DF91CF911F91E2
:100820000F91FF90EF90DF90CF900C94970340E0F2
:10083000682F83ED93E00C94C40381E00E941704B9
:100840008BE39FE10197F1F70895CF93DF93823017
:1008500029F49091E20398609093E2038093E60379
:100860001092E70380E48093E80380E18093E9033A
:1008700080E58093EA0361E08091D7030E940B0139
:100880008091D8038F3F19F061E00E940B0161E075
:100890008091D9030E940B01C3EDD3E09E01235D3B
:1008A00033408091E20384FD0BC084E090E0219608
:1008B0002817390744F461E08E810E940B01EECFC6
:1008C00088E090E0F4CF8BE39DE00197F1F760E0E2
:1008D0008091D7030E94DD0060E08091D9030E94DF
:1008E000DD008091D8038F3F19F060E00E94DD00A9
:1008F0008091E20384FD34C063E083ED93E00E94C5
:100900009703CBE4D6E4CE010197F1F763E083EDE2
:1009100093E00E9497032197F1F763E083ED93E062
:100920000E94970383E592E00197F1F762E083ED7F
:1009300093E00E9497038091E20380620E94170473
:1009400084E08093E3038CE00E9417040E941D045E
:1009500082E08093E40386E0DF91CF910C9417044A
:1009600080620E9417048BE496E40197F1F780916E
:10097000E20380620E94170483E592E00197F1F799
:100980008091E20380620E941704D5CF41E00E946B
:10099000C40381E090E00895FC0124813581232B7C
:1009A00039F421E0FB018081882349F020E007C071
:1009B000808191810E94070C21E0892BB9F7822F59
:1009C0000895CF93DF93EC0160E08AE00E94DD00A0
:1009D00060E089E00E94DD0060E086E00E94DD00CA
:1009E00062EA72E0CE010E94CC048823D1F061E07B
:1009F0008AE00E94DD006BEB71E086E393E00E94E9
:100A000023034C815D816881798186E393E00E94B4
:100A100097016BE571E086E393E0DF91CF910C9451
:100A2000A80266E971E0CE010E94CC04882319F087
:100A300061E089E0DECF6CE971E0CE010E94CC0478
:100A4000882319F061E086E0D4CF61EA71E0CE013D
:100A50000E94CC04882329F061E08AE00E94DD0036
:100A6000E7CF68EA71E0CE010E94CC04882319F038
:100A700061E089E009C06DEA71E0CE010E94CC041A
:100A8000882329F061E08AE00E94DD00DBCF65EB7E
:100A900071E0CE010E94CC04882309F4ACCF61E060
:100AA0008AE00E94DD00E4CFEF92FF920F931F9344
:100AB000CF93DF93EC017B018A01888199810097B4
:100AC00029F02A813B812417350788F4B8016F5F2C
:100AD0007F4F0E94410B009791F0998388831B837D
:100AE0000A832C813D81232B11F4FC0110821D838C
:100AF0000C83B701888199810E94100C0CC08881F9
:100B00009981009711F00E94B80A198218821D82FB
:100B10001C821B821A82CE01DF91CF911F910F910F
:100B2000FF90EF9008951F920F920FB60F9211242D
:100B30002F933F938F939F93AF93BF9380912903FC
:100B400090912A03A0912B03B0912C03309128039C
:100B500023E0230F2D3758F50196A11DB11D2093D9
:100B600028038093290390932A03A0932B03B09327
:100B70002C0380912D0390912E03A0912F03B0910F
:100B800030030196A11DB11D80932D0390932E0378
:100B9000A0932F03B0933003BF91AF919F918F919A
:100BA0003F912F910F900FBE0F901F90189526E840
:100BB000230F0296A11DB11DD2CF1F920F920FB627
:100BC0000F9211242F933F934F935F936F937F93D3
:100BD0008F939F93AF93BF93EF93FF9386E393E03D
:100BE0000E941502FF91EF91BF91AF919F918F915C
:100BF0007F916F915F914F913F912F910F900FBE19
:100C00000F901F9018951F920F920FB60F921124FC
:100C10002F938F939F93EF93FF93E0914603F0916F
:100C200047038081E0914C03F0914D0382FD1BC08E
:100C3000908180914F038F5F8F73209150038217B3
:100C400041F0E0914F03F0E0EA5CFC4F958F809318
:100C50004F03FF91EF919F918F912F910F900FBEB6
:100C60000F901F9018958081F4CFE6E3F3E0138294
:100C7000128288EE93E0A0E0B0E084839583A6839F
:100C8000B78381E491E09183808385EC90E0958740
:100C9000848784EC90E09787868780EC90E0918B46
:100CA000808B81EC90E0938B828B82EC90E0958B33
:100CB000848B86EC90E0978B868B118E128E138E30
:100CC000148EE3EDF3E01382128283E591E09183C9
:100CD00080838CE084838FEF85838BE0868385E03F
:100CE000878384E0808783E0818782E08287138620
:100CF000148615861686178681E00C942504CF93FA
:100D0000DF9300D000D000D0CDB7DEB7789484B5A3
:100D1000826084BD84B5816084BD85B5826085BDF7
:100D200085B5816085BD80916E00816080936E0085
:100D30001092810080918100826080938100809177
:100D40008100816080938100809180008160809328
:100D500080008091B10084608093B1008091B000E8
:100D600081608093B00080917A00846080937A00E3
:100D700080917A00826080937A0080917A0081600D
:100D800080937A0080917A00806880937A00109234
:100D9000C100E0914603F091470382E08083E09137
:100DA0004203F09143031082E0914403F091450324
:100DB0008FEC808310924E03E0914A03F0914B0335
:100DC00086E08083E0914803F0914903808180614F
:100DD0008083E0914803F09149038081886080839B
:100DE000E0914803F0914903808180688083E0911D
:100DF0004803F091490380818F7D808360E087E024
:100E00000E940B0161E08AE00E940B0161E089E031
:100E10000E940B0161E086E00E940B0182E00E94CB
:100E200025048091E403982F92609093E4038660F8
:100E30000E9417048091E3038B7F8093E303886013
:100E40000E9417040E9461018091E303982F94602F
:100E50009093E3038C600E9417048DEC91E00E9454
:100E6000FD0281EE91E00E94FD0246EF242E42E059
:100E7000342E57E0652E53E0752E60E2A62E63E017
:100E8000B62E78E1872E73E0972E4424439428E011
:100E9000522E30E0C32E30E0D32EE4E0F1E0849116
:100EA000E0EFF0E00491ECEDF0E01491112309F48F
:100EB00024C181110E94B400E12FF0E0EE0FFF1F6A
:100EC000E859FF4FA591B4918C91082309F415C1FD
:100ED0008091000181116BC0409200012FB7F894FE
:100EE0008091290390912A03A0912B03B0912C03A8
:100EF0002FBF8093010190930201A0930301B0934F
:100F0000040140910D0150910E0160910F0170910B
:100F10001001841B950BA60BB70B809311019093C6
:100F20001201A0931301B093140161EF71E086E305
:100F300093E00E942303609111017091120180914E
:100F40001301909114014AE00E94B7026BE571E031
:100F500086E393E00E94A802009111011091120112
:100F6000109325030093240362E172E086E393E08B
:100F70000E942303C8010E944D0380912301909198
:100F80002401092E000CAA0BBB0B409111015091BA
:100F900012016091130170911401481759076A07F3
:100FA0007B0708F061C0809121010E9425032FB7C3
:100FB000F8948091290390912A03A0912B03B0917A
:100FC0002C032FBF40910101509102016091030158
:100FD00070910401841B950BA60BB70B40911D016A
:100FE00050911E0160911F01709120018417950797
:100FF000A607B70708F4ACC10E941D04E1E0809188
:10100000E6038111E0E0E195F0E0ED52FC4F8489C8
:1010100080680E9417046AE972E083ED93E00E9401
:1010200023031A8219821C821B821E821D8243E0C6
:1010300050E062EA72E0CE0101960E945405CE01B2
:1010400001960E94E10489819A81009711F00E9423
:10105000B80A0E9461010E941D041092000186EAF4
:1010600092E00E94FD0274C1809122019ECF0F5F29
:101070001F4FF2E0EF0EF11C0A31110509F0AFC06D
:1010800060E572E086E393E00E94230361E373E08E
:1010900086E393E00E9423038DE692E00E94FD0226
:1010A0000FE3C1C0AC01415051094F30510528F444
:1010B0008A509D4FFC010083C9C0409731F421152F
:1010C000310519F400930703C1C0C90101970F97B7
:1010D00028F42A503D4FF901018BB8C067E073E056
:1010E00086EF92E00E94100C6DE571E087E093E0DE
:1010F0000E94100CE7CFE1E0DAC080910001882364
:1011000009F426C1109200012FB7F89480912903A9
:1011100090912A03A0912B03B0912C032FBF8093B1
:10112000050190930601A0930701B0930801409137
:101130000101509102016091030170910401841B2F
:10114000950BA60BB70B8093150190931601A093F6
:101150001701B09318016CE272E086E393E00E94FD
:1011600023036091150170911601809117019091F0
:1011700018014AE00E94B7026BE571E086E393E054
:101180000E94A802009115011091160110931D03F1
:1011900000931C0362E172E086E393E00E94230364
:1011A000C8010E944D038091250190912601092ECE
:1011B000000CAA0BBB0B40911501509116016091D8
:1011C00017017091180184179507A607B70708F053
:1011D0009FC08DE8E82E80E0F82E10E000E0F701D7
:1011E0006591749181E393E00E94B409892B09F021
:1011F0003ECF60E572E086E393E00E94230361E363
:1012000073E086E393E00E9423036CE572E086E3DB
:1012100093E00E9423030E581F4FF80184910E940F
:101220001003F8010491F10101900020E9F7CF01CA
:10123000875F9240F30101900020E9F79F01285059
:101240003340009709F02ECF0093F60269E872E070
:1012500086E393E00E94230366EF72E086E393E067
:101260000E94230366E972E086E393E00E94230371
:1012700087E093E00E94FD020E941D04E1E080915E
:10128000E6038111E0E0E195F0E0ED52FC4F848946
:1012900080680E94170466EF72E083ED93E00E947D
:1012A0002303E091E603E23008F025CFE150F0E0BF
:1012B000ED52FC4F848980680E94170467E073E058
:1012C00083ED93E00E9423031A8219821C821B8201
:1012D0001E821D8245E050E066E971E0CE01019674
:1012E0000E945405CE0101960E94E10489819A81F1
:1012F000009711F00E94B80A10923103F501852D74
:1013000011928A95E9F7F401852D11928A95E9F7F2
:101310008091010190910201A0910301B09104011B
:101320008093090190930A01A0930B01B0930C01E3
:101330008091050190910601A0910701B0910801EB
:1013400080930D0190930E01A0930F01B0931001B3
:10135000C114D10409F4A1CD0E940102882309F42B
:1013600094CD0E94000091CDFB01DC018D91059090
:1013700080190110D9F3990B08952F923F924F9243
:101380005F926F927F928F929F92AF92BF92CF9215
:10139000DF92EF92FF920F931F93CF93DF93CDB71E
:1013A000DEB7CA1BDB0B0FB6F894DEBF0FBECDBF96
:1013B00009942A88398848885F846E847D848C8467
:1013C0009B84AA84B984C884DF80EE80FD800C8170
:1013D0001B81AA81B981CE0FD11D0FB6F894DEBF53
:1013E0000FBECDBFED010895A1E21A2EAA1BBB1BB3
:1013F000FD010DC0AA1FBB1FEE1FFF1FA217B307E1
:10140000E407F50720F0A21BB30BE40BF50B661FF6
:10141000771F881F991F1A9469F7609570958095BA
:1014200090959B01AC01BD01CF010895EE0FFF1F08
:101430000590F491E02D09940F931F93CF93DF93C0
:101440008230910510F482E090E0E091ED03F0919C
:10145000EE0330E020E0B0E0A0E0309799F42115F1
:10146000310509F44AC0281B390B24303105D8F561
:101470008A819B816115710589F1FB0193838283C8
:10148000FE0111C040815181028113814817590723
:10149000E0F04817590799F4109761F012960C93F1
:1014A000129713961C933296CF01DF91CF911F9123
:1014B0000F9108950093ED031093EE03F4CF2115DF
:1014C000310551F04217530738F0A901DB019A01A9
:1014D000BD01DF01F801C1CFEF01F9CF9093EE0319
:1014E0008093ED03CDCFFE01E20FF31F8193919323
:1014F0002250310939832883D7CF2091EB033091D3
:10150000EC03232B41F42091390130913A013093BF
:10151000EC032093EB032091370130913801211522
:10152000310541F42DB73EB740913B0150913C014C
:10153000241B350BE091EB03F091EC03E217F3076A
:10154000A0F42E1B3F0B2817390778F0AC014E5F33
:101550005F4F2417350748F04E0F5F1F5093EC0381
:101560004093EB03819391939FCFF0E0E0E09CCF19
:10157000CF93DF930097E9F0FC0132971382128238
:10158000A091ED03B091EE03ED0130E020E0109763
:10159000A1F420813181820F931F2091EB033091C0
:1015A000EC032817390709F061C0F093EC03E093CE
:1015B000EB03DF91CF910895EA01CE17DF07E8F53D
:1015C0004A815B819E0141155105B1F7E901FB8319
:1015D000EA8349915991C40FD51FEC17FD0761F4B7
:1015E000808191810296840F951FE90199838883F8
:1015F000828193819B838A83F0E0E0E012968D9153
:101600009C9113970097B9F52D913C911197CD01BD
:101610000296820F931F2091EB033091EC03281761
:10162000390739F6309751F51092EE031092ED0319
:10163000B093EC03A093EB03BCCFD383C283408170
:101640005181840F951FC817D90761F44E5F5F4F12
:1016500088819981480F591F518340838A819B81DA
:10166000938382832115310509F0B0CFF093EE0307
:10167000E093ED039ECFFD01DC01C0CF1382128207
:10168000D7CFB0E0A0E0E7E4FBE00C94BF098C0109
:10169000009751F4CB010E941C0A8C01C801CDB700
:1016A000DEB7E0E10C94DB09FC01E60FF71F9C01BB
:1016B00022503109E217F30708F49DC0D901CD91FA
:1016C000DC911197C617D70798F0C530D10530F3D4
:1016D000CE0104978617970708F3C61BD70B2297EE
:1016E000C193D1936D937C93CF010E94B80AD6CF5A
:1016F0005B01AC1ABD0A4C018C0E9D1EA091ED033E
:10170000B091EE03512C412CF12CE12C109731F5C6
:101710008091EB039091EC038815990509F05CC06A
:101720004616570608F058C080913701909138014D
:10173000009741F48DB79EB740913B0150913C0119
:10174000841B950BE817F90708F055C0F093EC03DC
:10175000E093EB03F90171836083A0CF8D919C919D
:10176000119712966C90129713967C901397A81568
:10177000B90559F56C0142E0C40ED11CCA14DB0452
:1017800020F1AC014A195B09DA011296159780F035
:101790006282738251834083D9016D937C93E114FB
:1017A000F10471F0D7011396FC93EE93129776CF64
:1017B00022968C0F9D1FF90191838083F301EFCF57
:1017C000F093EE03E093ED0369CF4816590608F451
:1017D0002C017D01D3019ACFCB010E941C0A7C0110
:1017E000009749F0AE01B8010E94FE0BC8010E94AB
:1017F000B80A870153CF10E000E050CFFB01DC01B5
:1018000002C001900D9241505040D8F70895FB015D
:10181000DC018D91019080190110D9F3990B089585
:10182000FB01DC0101900D920020E1F70895F8948E
:02183000FFCFE8
:1018320000000000000000000000000000000000A6
:1018420000000000000000000032000000D007008D
:1018520000303164002C0100000000000000000094
:10186200000000000000000000EF03800000000004
:101872000037029701C4018402F501D301E7010098
:10188200000000C6049701A502A4020D0A004164EB
:1018920064656420746F206D6F727365436F646555
:1018A200496E7075743A20006D6F727365436F6490
:1018B20065496E7075742061727261792069732056
:1018C20066756C6C2E00677265656E00626C75657C
:1018D2000079656C6C6F77006379616E006D61678A
:1018E200656E746100776869746500524742204CE6
:1018F200696768742073657420746F20004C4344D8
:1019020020736574757020636F6D706C6574652EDD
:1019120000536574757020636F6D706C6574652E0D
:1019220000427574746F6E20707265737365642EF5
:10193200205072657373206475726174696F6E3AB8
:101942002000416464656420746F20647572617460
:10195200696F6E2061727261793A20004275747407
:101962006F6E2072656C65617365642E2052656CC2
:1019720065617365206475726174696F6E3A2000E7
:101982004D6F72736520636F64652000206D617412
:1019920063686573206C6574746572200020646FDF
:1019A2006573206E6F74206D6174636820616E7957
:1019B200206C65747465722E004C4344205570642B
:1019C2006174653A2000207C20004C434420436C23
:1019D2006561726564004C43442073637265656E91
:1019E20020636C65617265642E00313030300031E5
:1019F2003031300030303130003030303000303172
:101A0200313100303130300030313130003131305D
:101A1200310030303031003130303100313031314D
:061A2200003131303000FC
:00000001FF
