:100000000C9463000C948B000C948B000C948B006C
:100010000C948B000C948B000C948B000C948B0034
:100020000C948B000C948B000C948B000C948B0024
:100030000C948B000C948B000C948B000C948B0014
:100040000C949D050C948B000C948B000C948B00ED
:100050000C948B000C948B000C948B000C948B00F4
:100060000C948B000C948B000000000023002600F1
:10007000290000000000240027002A0000000000E2
:10008000250028002B0004040404040404040202D4
:100090000202020203030303030301020408102007
:1000A0004080010204081020010204081020000012
:1000B0000008000201000003040700000000000027
:1000C0000000D808AD0A11241FBECFEFD8E0DEBF74
:1000D000CDBF24E0A0E9B1E001C01D92AB35B2076D
:1000E000E1F711E0A0E0B1E0E8E4FAE102C0059038
:1000F0000D92A039B107D9F710E0C2E6D0E004C0F4
:100100002197FE010E94160BC136D107C9F70E9444
:10011000E7050C94170D0C940000833081F028F44F
:10012000813099F08230A9F008958730A9F08830A5
:10013000C9F08430B1F4809180008F7D03C080913C
:1001400080008F7780938000089584B58F7784BD79
:10015000089584B58F7DFBCF8091B0008F77809319
:10016000B00008958091B0008F7DF9CF1F93CF9399
:10017000DF93282F30E0F901E255FF4F8491F90118
:10018000E656FF4FD491F901EA57FF4FC491CC23B3
:10019000A9F0162F81110E948D00EC2FF0E0EE0FD8
:1001A000FF1FE458FF4FA591B4918FB7F894EC91DD
:1001B000111108C0D095DE23DC938FBFDF91CF9162
:1001C0001F910895DE2BF8CFCF93DF9390E0FC01D1
:1001D000E656FF4F24918A579F4FFC018491882354
:1001E000D1F090E0880F991FFC01EE58FF4FA591C8
:1001F000B491FC01E458FF4FC591D49161110EC038
:100200009FB7F8948C91E22FE0958E238C932881F0
:10021000E223E8839FBFDF91CF9108958FB7F894D1
:10022000EC91E22BEC938FBFF6CF1F93CF93DF932C
:10023000182FEB0161E00E94E400209739F460E0A0
:10024000812FDF91CF911F910C94B600CF3FD10544
:1002500011F461E0F5CFE12FF0E0E255FF4FE491BA
:10026000E33031F140F4E130B1F0E230E1F0C03898
:10027000D1057CF7E4CFE73029F1E83059F1E430DB
:10028000B1F780918000806280938000D0938B00D2
:10029000C0938A0004C084B5806884BDC7BDDF9167
:1002A000CF911F91089584B5806284BDC8BDF7CFFA
:1002B00080918000806880938000D0938900C093F3
:1002C0008800EDCF8091B00080688093B000C0932B
:1002D000B300E5CF8091B00080628093B000C093FE
:1002E000B400DDCF3FB7F8948091280490912904A1
:1002F000A0912A04B0912B0426B5A89B05C02F3FDE
:1003000019F00196A11DB11D3FBFBA2FA92F982F3B
:100310008827BC01CD01620F711D811D911D42E036
:10032000660F771F881F991F4A95D1F708958F92FE
:100330009F92AF92BF92CF92DF92EF92FF920E9474
:1003400072014B015C0184EFC82EDD24D394E12CB3
:10035000F12C0E947201681979098A099B09683E8B
:10036000734081059105A8F321E0C21AD108E10884
:10037000F10888EE880E83E0981EA11CB11CC11400
:10038000D104E104F10429F7FF90EF90DF90CF90C2
:10039000BF90AF909F908F9008952FB7F894609181
:1003A00024047091250480912604909127042FBF86
:1003B00008950895AF92BF92CF92DF92EF92FF928D
:1003C0000F931F93CF93DF936C017B018B01040F7D
:1003D000151FEB015E01AE18BF08C017D10759F019
:1003E0006991D601ED91FC910190F081E02DC6015B
:1003F0000995892B79F7C501DF91CF911F910F9155
:10040000FF90EF90DF90CF90BF90AF90089590E075
:1004100080E008950F931F93CF93DF93EB018A0140
:10042000BC018DE00E941501B80189E00E94150110
:10043000BE018AE0DF91CF911F910F910C941501BD
:10044000CF93DF93EC0180913C0490913D049D8318
:100450008C8308969B838A83009711F481E090E057
:100460000E941C0B9983888390E080E02C813D8161
:100470008217930780F4E881F981E80FF91F30971C
:1004800041F0A0913804B0913904A80FB91F2C9104
:1004900020830196EBCFDF91CF910895FC018081FD
:1004A00091810C94B80BEF92FF920F931F93CF930F
:1004B000DF9320913C0430913D04E90121962C17F3
:1004C0003D0708F059C08C0140913A0450913B041B
:1004D0004C175D0788F5C90109964817590760F55B
:1004E000E0903804F090390490933B0480933A04F0
:1004F000009711F481E090E00E941C0B9093390466
:1005000080933804F701CF018E199F0920913C0494
:1005100030913D048217930760F4A0913804B091A4
:100520003904A80FB91F109711F080818C93319670
:10053000EACFC7010E94B80B20913C0430913D04E2
:100540002C173D0770F4E0913804F0913904E20F64
:10055000F31F309719F0D8018C9180832F5F3F4FA4
:10056000EFCFD0933D04C0933C04DF91CF911F9116
:100570000F91FF90EF90089510923D0410923C046B
:10058000F4CFFC0180819181009711F00C94B80B9D
:100590000895CF93DF93EC0180913204909133045E
:1005A0000097E9F06881798161157105B1F040919A
:1005B0003404509135042C813D814217530768F073
:1005C0000E94100D8C819D81909337048093360496
:1005D0001D821C82DF91CF9108950E94B80B888103
:1005E000998190933304809332048A819B81909304
:1005F0003504809334048C819D81909337048093DB
:100600003604198218821B821A82E2CFCF93DF93BD
:10061000EC0160E08E810E94B60061E08E810E9454
:10062000B60060E08E810E94B6008BE891E00197F1
:10063000F1F7DF91CF910895CF92DF92EF92FF9281
:100640000F931F93CF93DF936C017C0187E0E80E3B
:10065000F11CD0E0C0E0062F10E0B8010C2E02C063
:10066000759567950A94E2F76170F70181917F01B2
:100670000E94B6002196C430D10579F7C601DF91FA
:10068000CF911F910F91FF90EF90DF90CF900C943E
:100690000603CF92DF92EF92FF920F931F93CF93B7
:1006A000DF93EC01F62E642F8C810E94B6008D81C1
:1006B0008F3F19F060E00E94B6000F2D10E08F858B
:1006C00084FF25C06E0187E0C80ED11CF12CE12CFF
:1006D000B8010E2C02C0759567950A94E2F7617017
:1006E000F60181916F010E94B600FFEFEF1AFF0A39
:1006F00088E0E816F10461F7CE01DF91CF911F91F8
:100700000F91FF90EF90DF90CF900C940603B8010B
:1007100084E0759567958A95E1F7CE010E941C03E8
:100720006F2DCE01DF91CF911F910F91FF90EF9030
:10073000DF90CF900C941C0340E0682F8FE394E08F
:100740000C944903CF93DF93823029F490914E04A7
:10075000986090934E04809352041092530480E466
:100760008093540480E18093550480E5809356047F
:1007700061E0809143040E94E400809144048F3F33
:1007800019F061E00E94E40061E0809145040E945C
:10079000E400CFE3D4E09E012F53344080914E0417
:1007A00084FD0BC084E090E021962817390744F4BB
:1007B00061E08E810E94E400EECF88E090E0F4CF0B
:1007C0008BE39DE00197F1F760E0809143040E9484
:1007D000B60060E0809145040E94B6008091440418
:1007E0008F3F19F060E00E94B60080914E0484FDB6
:1007F00039C063E08FE394E00E941C03CBE4D6E4AD
:10080000CE010197F1F763E08FE394E00E941C03AF
:100810002197F1F763E08FE394E00E941C0383E5E6
:1008200092E00197F1F762E08FE394E00E941C03ED
:1008300080914E0480620E949C0384E080934F0468
:100840008CE00E949C0381E00E949C038BE39FE16B
:100850000197F1F782E08093500486E0DF91CF9119
:100860000C949C0380620E949C038BE496E40197A5
:10087000F1F780914E0480620E949C0383E592E030
:100880000197F1F780914E0480620E949C03D0CFC3
:1008900041E00E94490381E090E008950F931F9387
:1008A000CF93DF93EC0188819981009759F02A81D9
:1008B0003B812617370730F081E0DF91CF911F9100
:1008C0000F9108958B016F5F7F4F0E94410C00973D
:1008D00059F0998388831B830A832C813D81232BC4
:1008E00059F7FC011082E8CF80E0E7CFEF92FF924A
:1008F0000F931F93CF93DF93EC017B018A01BA0121
:100900000E944E0428813981811114C021153105BE
:1009100019F0C9010E94B80B198218821D821C822D
:100920001B821A82CE01DF91CF911F910F91FF9010
:10093000EF9008951D830C83B701C9010E94100D2B
:10094000F1CFCF93DF93EC01FB018617970749F0B6
:10095000608171816115710541F0448155810E946A
:100960007604CE01DF91CF91089588819981009717
:1009700011F00E94B80B198218821D821C821B8202
:100980001A82EFCFFC01118210821382128215822B
:100990001482FB0101900020E9F73197AF01461B5B
:1009A000570B0C9476046F927F928F929F92AF9226
:1009B000BF92CF92DF92EF92FF920F931F93CF934C
:1009C000DF9300D000D000D0CDB7DEB78C017B0123
:1009D00050E040E062E371E08DE194E00E94760433
:1009E000F701C080D180A480B580AC0CBD1CAC14D4
:1009F000BD0439F1F60181916F0189831A82E0907B
:100A00002104F0902204FFEFEF1AFF0AB7018DE1F5
:100A100094E00E944E04882351F320911D043091EC
:100A20001E048091210490912204BE016F5F7F4FCC
:100A3000820F931F0E94100DF0922204E092210475
:100A4000D6CF1A8219821C821B821E821D826DE102
:100A500074E0CE0101960E94A1046090C8027090DB
:100A6000C9028D809E80C980DA8080E9A82E81E04D
:100A7000B82EF12CE12CE614F704FCF4F501848186
:100A800095818815990591F4808191810097D9F01D
:100A9000C114D10439F48114910419F1FC0180814D
:100AA00090E01DC0B6010E94070D19C0FFEFEF1ABC
:100AB000FF0A8CE0A80EB11CDECF62E171E0C80134
:100AC0000E94C20420C0C114D10459F081149104C1
:100AD00041F0F601808190E0919581959109892BF3
:100AE00029F7F80111821082138212821582148272
:100AF0008CE08E9DB0018F9D700D11246A567E4F43
:100B0000C8010E94A104CE0101960E94C102C80141
:100B100026960FB6F894DEBF0FBECDBFDF91CF9102
:100B20001F910F91FF90EF90DF90CF90BF90AF900B
:100B30009F908F907F906F9008951F920F920FB6A5
:100B40000F9211242F933F938F939F93AF93BF9353
:100B50008091240490912504A0912604B09127044B
:100B60003091230423E0230F2D3758F50196A11D62
:100B7000B11D209323048093240490932504A09313
:100B80002604B09327048091280490912904A09111
:100B90002A04B0912B040196A11DB11D8093280455
:100BA00090932904A0932A04B0932B04BF91AF9192
:100BB0009F918F913F912F910F900FBE0F901F909B
:100BC000189526E8230F0296A11DB11DD2CFCF9311
:100BD000DF93CDB7DEB72D970FB6F894DEBF0FBE0B
:100BE000CDBF789484B5826084BD84B5816084BDB6
:100BF00085B5826085BD85B5816085BD80916E00BB
:100C0000816080936E0010928100809181008260EB
:100C10008093810080918100816080938100809128
:100C200080008160809380008091B1008460809317
:100C3000B1008091B00081608093B00080917A0013
:100C4000846080937A0080917A00826080937A0039
:100C500080917A00816080937A0080917A00806828
:100C600080937A001092C10050E040E070E060E0B4
:100C700090E080E00E940A0260E087E00E94E400C9
:100C800061E08DE00E94E40061E08AE00E94E400FF
:100C900061E089E00E94E40010E000E06CE0B62E24
:100CA0001A8219821C821B821E821D82B8016A5917
:100CB0007C4FCE0101960E94A104198618861B86DE
:100CC0001A861D861C86B80166537D4FCE01089694
:100CD0000E94A104E090C802F090C902BE9C60018D
:100CE000BF9CD00C1124BE01685F7F4FC6018057A6
:100CF0009E4F0E94A104BE016F5F7F4FC6018A56BE
:100D00009E4F0E94A1042FEFE21AF20AF092C9024C
:100D1000E092C802CE0108960E94C102CE0101965F
:100D20000E94C1020A5F1F4F0C39110509F0B8CFAC
:100D300082E00E94A20380915004982F92609093C9
:100D4000500486600E949C0380914F048B7F8093A7
:100D50004F0488600E949C030E94970180914F0479
:100D6000982F946090934F048C600E949C030E9483
:100D7000970195EB692E90E0792E21EAE22E20E092
:100D8000F22E3DE8C32E30E0D32E4BE3842E4FE10C
:100D9000942E50E0A52E50E0B52E0FEF10E0442425
:100DA000439410922D0410922C0410922F04109250
:100DB0002E04109231041092300450E040E070E0B4
:100DC00060E090E080E00E940A0280913C049091F3
:100DD0003D04892B21F010923D0410923C0450E018
:100DE00040E062E371E08DE194E00E9476040E94AD
:100DF000CD016093030470930404809305049093E1
:100E00000604F3018491F7015490F60134903320E5
:100E100009F451C181110E948D00E32DF0E0EE0F25
:100E2000FF1FE859FF4FA591B4918C91582209F406
:100E300042C180910204811168C0809103049091A5
:100E40000404A0910504B091060440910704509158
:100E500008046091090470910A04841B950BA60B89
:100E6000B70B40910B0450910C0460910D047091EC
:100E70000E04481759076A077B0708F046C010930D
:100E80002D0400932C0410932F0400932E04109330
:100E90003104009330044FEF50E06FEF70E08FEFBC
:100EA00090E00E940A02409202040E94CD0120912B
:100EB0000704309108044091090450910A04621B10
:100EC000730B840B950B6093170470931804809335
:100ED000190490931A048091030490910404A09142
:100EE0000504B09106048093070490930804A0932E
:100EF0000904B0930A040E94CD0160930F0470931B
:100F00001004809311049093120480913C049091FA
:100F10003D0405970CF061C0809113049091140476
:100F2000A0911504B0911604853FF1E09F07A1053B
:100F3000B10508F0FFC08B3F9105A105B10508F090
:100F4000F6C08BE194E00E945302809117049091C7
:100F50001804A0911904B0911A04843F9140A1058E
:100F6000B105D8F1CE0101960E942002BE016F5F4B
:100F70007F4FCE0108960E94D304CE0108960E94AE
:100F8000C902CE0108960E94C102CE0101960E94BC
:100F90004E028091360490913704892BF1F062E182
:100FA00071E080913204909133040E94070D892BE7
:100FB000A1F410932D0400932C0410922F0410928E
:100FC0002E04109231041092300450E040E070E0A2
:100FD00060E08FEF90E00E940A02809113049091EC
:100FE0001404A0911504B0911604803D9740A1050A
:100FF000B10520F181E00E949C03C4010197F1F743
:1010000080913C0490913D04892B21F010923D0485
:1010100010923C0410922D0410922C0410922F0474
:1010200010922E0410933104009330044FEF50E0DF
:1010300070E060E090E080E00E940A02E1E08091D0
:1010400052048111E0E0E195F0E0E15CFB4F84891E
:1010500080680E949C0380915004982F9160909327
:10106000500485600E949C0310922D0410922C0461
:1010700010932F0400932E04109231041092300428
:1010800050E040E06FEF70E090E080E00E940A02E4
:1010900040913604509137046091320470913304CA
:1010A0008FE394E00E94DA01A114B10409F479CE2F
:1010B0000E94000076CE10922D0410922C04109203
:1010C0002F0410922E04109231041092300450E03C
:1010D00040E070E060E090E080E00E940A028091D1
:1010E0000204882309F411CF109202040E94CD015A
:1010F00060930704709308048093090490930A0492
:101100000E94CD0120910F043091100440911104F0
:1011100050911204621B730B840B950B60931304A4
:10112000709314048093150490931604EECE8CE112
:1011300094E009CFCE0101960E942002BE016F5FAC
:101140007F4FCE0108960E94D304CE0108960E94DC
:10115000C902CE0108960E94C102CE0101960E94EA
:101160004E028091360490913704892B09F4EDCE1C
:1011700062E171E080913204909133040E94070D86
:10118000892B09F0E2CE10932D0400932C041092C9
:101190002F0410922E04109231041092300450E06B
:1011A00040E070E060E08FEF90E00E940A02CDCE58
:1011B0000F931F93CF93DF931092030410920404B4
:1011C000109205041092060410920704109208046D
:1011D0001092090410920A0482E390E0A0E0B0E0CB
:1011E00080930B0490930C04A0930D04B0930E0411
:1011F00010920F0410921004109211041092120415
:1012000010921304109214041092150410921604F4
:1012100010921704109218041092190410921A04D4
:1012200080E380931B0481E380931C0410924204AA
:10123000109241048AE091E09093400480933F042F
:101240008CE0809343048FEF809344048BE0809381
:10125000450485E08093460484E08093470483E05E
:101260008093480482E08093490410924A041092CB
:101270004B0410924C0410924D0410924E0481E0E5
:101280000E94A20362E371E082E394E00E94C20440
:10129000C0E9D1E008EC12E062E371E0CE010E9407
:1012A000C20462E371E0CE0106960E94C2042C964D
:1012B0000C171D0789F788E090E090933B0480931A
:1012C0003A0410923D0410923C040E941C0B90932F
:1012D00039048093380462E371E08DE194E00E9468
:1012E000C20469E471E08AEC92E00E94C2046FE1FA
:1012F00071E080ED92E00E94C20464E271E086ED4C
:1013000092E00E94C20469E371E08CED92E00E94D9
:10131000C20461E371E082EE92E00E94C20469E2DD
:1013200071E088EE92E00E94C2046EE371E08EEEFE
:1013300092E00E94C2046EE271E084EF92E00E94AB
:10134000C20460E371E08AEF92E00E94C20463E3AA
:1013500071E080E093E00E94C20463E471E086E003
:1013600093E00E94C20468E371E08CE093E00E9485
:10137000C20463E571E082E193E00E94C2046BE283
:1013800071E088E193E00E94C20464E371E08EE1C1
:1013900093E00E94C2046DE371E084E293E00E9456
:1013A000C20462E471E08AE293E00E94C2046AE24D
:1013B00071E080E393E00E94C2046FE271E086E393
:1013C00093E00E94C2046AE471E08CE393E00E941F
:1013D000C20468E471E082E493E00E94C20467E41E
:1013E00071E088E493E00E94C20462E571E08EE45B
:1013F00093E00E94C2046CE471E084E593E00E94F3
:10140000C20461E571E08AE593E00E94C20466E5EA
:1014100071E080E693E00E94C2046BE571E086E62D
:1014200093E00E94C2046DE571E08CE693E00E94B7
:10143000C2046FE571E082E793E00E94C20461E6B6
:1014400071E088E793E00E94C20463E671E08EE7F2
:1014500093E00E94C20465E671E084E893E00E9494
:10146000C20467E671E08AE893E00E94C20469E67C
:1014700071E080E993E00E94C2046BE671E086E9C6
:1014800093E00E94C2046DE671E08CE993E00E9453
:10149000C2046FE671E082EA93E00E94C20461E751
:1014A00071E088EA93E00E94C20463E771E08EEA8B
:1014B00093E00E94C20465E771E084EB93E00E9430
:1014C000C20467E771E08AEB93E00E94C20469E717
:1014D00071E080EC93E00E94C2046BE771E086EC5F
:1014E00093E00E94C2046DE771E08CEC93E00E94EF
:1014F000C2046FE771E082ED93E00E94C20461E8EC
:1015000071E088ED93E00E94C20463E871E08EED23
:1015100093E00E94C20465E871E084EE93E00E94CB
:10152000C20467E871E08AEE93E00E94C20469E8B1
:1015300071E080EF93E00E94C2046BE871E086EFF7
:1015400093E00E94C2046DE871E08CEF93E0DF91BC
:10155000CF911F910F910C94C204CF93DF93C2E0FF
:10156000D4E02697CE010E94C10283E0C636D80798
:10157000C1F7C6E6D3E02697CE010E94C10282E001
:10158000CA3CD807C1F78DE194E00E94C10288E30C
:1015900094E00E944E02C8ECD2E02C97CE01069651
:1015A0000E94C102CE010E94C10281E0C039D80769
:1015B000A1F782E394E0DF91CF910C94C1022F92C6
:1015C0003F924F925F926F927F928F929F92AF92D3
:1015D000BF92CF92DF92EF92FF920F931F93CF9320
:1015E000DF93CDB7DEB7CA1BDB0B0FB6F894DEBFB7
:1015F0000FBECDBF09942A88398848885F846E84DD
:101600007D848C849B84AA84B984C884DF80EE8026
:10161000FD800C811B81AA81B981CE0FD11D0FB62F
:10162000F894DEBF0FBECDBFED010895EE0FFF1F92
:101630000590F491E02D09940F931F93CF93DF93BE
:101640008230910510F482E090E0E0915904F0912D
:101650005A0430E020E0B0E0A0E0309799F4211582
:10166000310509F44AC0281B390B24303105D8F55F
:101670008A819B816115710589F1FB0193838283C6
:10168000FE0111C040815181028113814817590721
:10169000E0F04817590799F4109761F012960C93EF
:1016A000129713961C933296CF01DF91CF911F9121
:1016B0000F9108950093590410935A04F4CF211503
:1016C000310551F04217530738F0A901DB019A01A7
:1016D000BD01DF01F801C1CFEF01F9CF90935A04AA
:1016E00080935904CDCFFE01E20FF31F81939193B4
:1016F0002250310939832883D7CF20915704309164
:101700005804232B41F420910201309103013093BE
:1017100058042093570420910001309101012115B4
:10172000310541F42DB73EB74091040150910501B8
:10173000241B350BE0915704F0915804E217F3078E
:10174000A0F42E1B3F0B2817390778F0AC014E5F31
:101750005F4F2417350748F04E0F5F1F5093580412
:1017600040935704819391939FCFF0E0E0E09CCFAA
:10177000CF93DF930097E9F0FC0132971382128236
:10178000A0915904B0915A04ED0130E020E0109787
:10179000A1F420813181820F931F20915704309151
:1017A00058042817390709F061C0F0935804E093F2
:1017B0005704DF91CF910895EA01CE17DF07E8F5CE
:1017C0004A815B819E0141155105B1F7E901FB8317
:1017D000EA8349915991C40FD51FEC17FD0761F4B5
:1017E000808191810296840F951FE90199838883F6
:1017F000828193819B838A83F0E0E0E012968D9151
:101800009C9113970097B9F52D913C911197CD01BB
:101810000296820F931F2091570430915804281785
:10182000390739F6309751F510925A04109259043D
:10183000B0935804A0935704BCCFD383C283408194
:101840005181840F951FC817D90761F44E5F5F4F10
:1018500088819981480F591F518340838A819B81D8
:10186000938382832115310509F0B0CFF0935A0498
:10187000E09359049ECFFD01DC01C0CF1382128298
:10188000D7CFB0E0A0E0E7E4FCE00C94E10A8C01E3
:10189000009751F4CB010E941C0B8C01C801CDB7FD
:1018A000DEB7E0E10C94FD0AFC01E60FF71F9C0196
:1018B00022503109E217F30708F49DC0D901CD91F8
:1018C000DC911197C617D70798F0C530D10530F3D2
:1018D000CE0104978617970708F3C61BD70B2297EC
:1018E000C193D1936D937C93CF010E94B80BD6CF57
:1018F0005B01AC1ABD0A4C018C0E9D1EA0915904CF
:10190000B0915A04512C412CF12CE12C109731F557
:1019100080915704909158048815990509F05CC08E
:101920004616570608F058C08091000190910101B9
:10193000009741F48DB79EB7409104015091050185
:10194000841B950BE817F90708F055C0F09358046D
:10195000E0935704F90171836083A0CF8D919C912E
:10196000119712966C90129713967C901397A81566
:10197000B90559F56C0142E0C40ED11CCA14DB0450
:1019800020F1AC014A195B09DA011296159780F033
:101990006282738251834083D9016D937C93E114F9
:1019A000F10471F0D7011396FC93EE93129776CF62
:1019B00022968C0F9D1FF90191838083F301EFCF55
:1019C000F0935A04E093590469CF4816590608F475
:1019D0002C017D01D3019ACFCB010E941C0B7C010D
:1019E000009749F0AE01B8010E94FE0CC8010E94A8
:1019F000B80B870153CF10E000E050CFFB01DC01B2
:101A000002C001900D9241505040D8F70895FB015B
:101A1000DC018D91019080190110D9F3990B089583
:101A2000FB01DC0101900D920020E1F7089510E028
:101A3000C2E6D0E004C0FE010E94160B2196C33618
:081A4000D107C9F7F894FFCFAC
:101A480000005B048000000000004804DA0107027F
:101A5800D901496E76616C696420436F6465003111
:101A680030303000313031300030303130003030FB
:101A780030300030313131003031303000303131E8
:101A880030003131303100303030310031303031D8
:101A980000313031310031313030004100420043F3
:101AA800004400450046004700480049004A004BF2
:101AB800004C004D004E004F0050005100520053A2
:101AC800005400550056005700580059005A0000AD
:00000001FF
