:100000000C948A000C94B2000C94B2000C94B200D0
:100010000C94B2000C94B2000C94B2000C94B20098
:100020000C94B2000C94B2000C94B2000C94B20088
:100030000C94B2000C94B2000C94B2000C94B20078
:100040000C9472030C94B2000C94B2000C94B200A5
:100050000C94B2000C94B2000C94B2000C94B20058
:100060000C94B2000C94B2000000000023002600A3
:1000700029004142434445464748494A4B4C4D4E6E
:100080004F505152535455565758595A006D0143C9
:100090000148015D0155014D0162015201540157B2
:1000A0000167015C0177014F015801610166014E52
:1000B0000153016E016C016B017601700175017ACB
:1000C0000100000000240027002A00000000002595
:1000D0000028002B000404040404040404020202A7
:1000E0000202020303030303030102040810204079
:1000F0008001020408102001020408102000000002
:1001000008000201000003040700000000000000D6
:100110000000190711241FBECFEFD8E0DEBFCDBF0E
:1001200011E0A0E0B1E0E2E7F2E102C005900D923B
:10013000A038B107D9F721E0A0E8B1E001C01D92D5
:10014000A93DB207E1F710E0CAE8D0E004C021976A
:10015000FE010E944007C938D107C9F70E94BC03BD
:100160000C9437090C940000833081F028F481301E
:1001700099F08230A9F008958730A9F08830C9F04D
:100180008430B1F4809180008F7D03C08091800025
:100190008F7780938000089584B58F7784BD08950C
:1001A00084B58F7DFBCF8091B0008F778093B000B6
:1001B00008958091B0008F7DF9CF1F93CF93DF9387
:1001C000282F30E0F901E350FF4F8491F901E75106
:1001D000FF4FD491F901EB52FF4FC491CC23A9F00A
:1001E000162F81110E94B400EC2FF0E0EE0FFF1FDC
:1001F000E553FF4FA591B4918FB7F894EC9111118D
:1002000008C0D095DE23DC938FBFDF91CF911F9183
:100210000895DE2BF8CFCF93DF9390E0FC01E751F8
:10022000FF4F24918B529F4FFC0184918823D1F082
:1002300090E0880F991FFC01EF53FF4FA591B491F7
:10024000FC01E553FF4FC591D49161110EC09FB7DA
:10025000F8948C91E22FE0958E238C932881E223F1
:10026000E8839FBFDF91CF9108958FB7F894EC9109
:10027000E22BEC938FBFF6CF1F93CF93DF93182F12
:10028000EB0161E00E940B01209739F460E0812FBF
:10029000DF91CF911F910C94DD00E12FF0E0E3504E
:1002A000FF4FE491E33011F148F4E130B9F0E2306E
:1002B00069F784B5806284BDC8BD14C0E73001F120
:1002C000E83031F1E43011F7809180008062809352
:1002D0008000D0938B00C0938A0004C084B58068EE
:1002E00084BDC7BDDF91CF911F910895809180009B
:1002F000806880938000D0938900C0938800F2CFFB
:100300008091B00080688093B000C093B300EACFC2
:100310008091B00080628093B000C093B400E2CFBF
:100320003FB7F8948091B8019091B901A091BA01BA
:10033000B091BB0126B5A89B05C02F3F19F00196CF
:10034000A11DB11D3FBFBA2FA92F982F8827BC012F
:10035000CD01620F711D811D911D42E0660F771F57
:10036000881F991F4A95D1F70895AF92BF92CF92F7
:10037000DF92EF92FF920F931F93CF93DF936C0165
:100380007B018B01040F151FEB015E01AE18BF0846
:10039000C017D10759F06991D601ED91FC910190F8
:1003A000F081E02DC6010995892B79F7C501DF9110
:1003B000CF911F910F91FF90EF90DF90CF90BF9062
:1003C000AF900895089590E080E008950F931F93F3
:1003D000CF93DF93EB018A01BC018AE00E943C01CC
:1003E000B80186E00E943C01BE0189E0DF91CF9117
:1003F0001F910F910C943C012CEB31E0F90101901D
:100400000020E9F79F012D5B31402330310550F486
:10041000F901E454FE4F808323543E4FF9011082CA
:1004200081E0089580E00895CF93DF93EC0160E0D0
:100430008E810E94DD0061E08E810E94DD0060E01F
:100440008E810E94DD008BE891E00197F1F7DF914A
:10045000CF910895CF92DF92EF92FF920F931F9367
:10046000CF93DF936C017C0187E0E80EF11CD0E0B4
:10047000C0E0062F10E0B8010C2E02C075956795FC
:100480000A94E2F76170F70181917F010E94DD001B
:100490002196C430D10579F7C601DF91CF911F9124
:1004A0000F91FF90EF90DF90CF900C941402CF92B9
:1004B000DF92EF92FF920F931F93CF93DF93EC01A4
:1004C000F62E642F8C810E94DD008D818F3F19F004
:1004D00060E00E94DD000F2D10E08F8584FF25C0B5
:1004E0006E0187E0C80ED11CF12CE12CB8010E2C56
:1004F00002C0759567950A94E2F76170F6018191E3
:100500006F010E94DD00FFEFEF1AFF0A88E0E81696
:10051000F10461F7CE01DF91CF911F910F91FF9010
:10052000EF90DF90CF900C941402B80184E07595A1
:1005300067958A95E1F7CE010E942A026F2DCE01C0
:10054000DF91CF911F910F91FF90EF90DF90CF90AF
:100550000C942A0240E0682F81EC91E00C94570241
:10056000CF93DF93823029F49091D00198609093DB
:10057000D0018093D4011092D50180E48093D601FC
:1005800080E18093D70180E58093D80161E080917C
:10059000C5010E940B018091C6018F3F19F061E0F7
:1005A0000E940B0161E08091C7010E940B01C1EC28
:1005B000D1E09E01215C31408091D00184FD0BC0CF
:1005C00084E090E021962817390744F461E08E8199
:1005D0000E940B01EECF88E090E0F4CF8BE39DE02A
:1005E0000197F1F760E08091C5010E94DD0060E0B5
:1005F0008091C7010E94DD008091C6018F3F19F0F4
:1006000060E00E94DD008091D00184FD39C063E08C
:1006100081EC91E00E942A02CBE4D6E4CE0101975E
:10062000F1F763E081EC91E00E942A022197F1F753
:1006300063E081EC91E00E942A0283E592E0019759
:10064000F1F762E081EC91E00E942A028091D001F2
:1006500080620E94AA0284E08093D1018CE00E9413
:10066000AA0281E00E94AA028BE39FE10197F1F7C1
:1006700082E08093D20186E0DF91CF910C94AA02B0
:1006800080620E94AA028BE496E40197F1F78091C0
:10069000D00180620E94AA0283E592E00197F1F7FF
:1006A0008091D00180620E94AA02D0CF41E00E94D6
:1006B000570281E090E00895ECEBF1E085E0DF0186
:1006C0001D928A95E9F788E0E0E8F1E0DF01982FD4
:1006D0001D929A95E9F7E8E8F1E0DF011D928A950D
:1006E000E9F708951F920F920FB60F9211242F93DE
:1006F0003F938F939F93AF93BF938091B401909159
:10070000B501A091B601B091B7013091B30123E0DA
:10071000230F2D3758F50196A11DB11D2093B3016C
:100720008093B4019093B501A093B601B093B70143
:100730008091B8019091B901A091BA01B091BB012B
:100740000196A11DB11D8093B8019093B901A093AA
:10075000BA01B093BB01BF91AF919F918F913F912F
:100760002F910F900FBE0F901F90189526E8230F22
:100770000296A11DB11DD2CFCF93DF93CDB7DEB7C7
:1007800060970FB6F894DEBF0FBECDBF789484B5E6
:10079000826084BD84B5816084BD85B5826085BD7D
:1007A00085B5816085BD80916E00816080936E000B
:1007B00010928100809181008260809381008091FD
:1007C00081008160809381008091800081608093AE
:1007D00080008091B10084608093B1008091B0006E
:1007E00081608093B00080917A00846080937A0069
:1007F00080917A00826080937A0080917A00816093
:1008000080937A0080917A00806880937A001092B9
:10081000C10060E087E00E940B0161E08AE00E9475
:100820000B0161E089E00E940B0161E086E00E941B
:100830000B0182E00E94B0028091D201982F926059
:100840009093D20186600E94AA028091D1018B7F91
:100850008093D10188600E94AA020E9490014B01FE
:100860005C0134EFC32EDD24D394E12CF12C0E94E3
:100870009001681979098A099B09683E73408105CE
:100880009105A8F301E0C01AD108E108F10818EEBB
:10089000810E13E0911EA11CB11CC114D104E1040E
:1008A000F10429F78091D101982F94609093D101A0
:1008B0008C600E94AA028FB7F894C090B401D090C7
:1008C000B501E090B601F090B7018FBFC092010171
:1008D000D0920201E0920301F0920401E4E0F1E021
:1008E0008491E0EFF0E0F491F983ECEDF0E0F49125
:1008F000FD83FF2309F44BC081110E94B4000D81D8
:10090000E02FF0E0EE0FFF1FE859FF4FA591B491E3
:100910008C9119811823D9F18091000181111BC29A
:100920008091090190910A01A0910B01B0910C01F5
:10093000B701A601481B590B6A0B7B0B809119016B
:1009400090911A01A0911B01B0911C018417950789
:10095000A607B70708F0FFC121E020930001C0926D
:100960000901D0920A01E0920B01F0920C018091F2
:10097000050190910601A0910701B09108018093B3
:100980000D0190930E01A0930F01B093100180917F
:100990000001882309F4F5C144E650E064E670E004
:1009A00084E690E00E94E6018091010190910201AD
:1009B000A0910301B091040180900501909006017F
:1009C000A0900701B0900801881A990AAA0ABB0AE8
:1009D0008092110190921201A0921301B092140121
:1009E00040910D0150910E0160910F017091100125
:1009F0008C019D01041B150B260B370B09871A87E9
:100A00002B873C8700931501109316012093170143
:100A10003093180190928D0180928C011093850182
:100A20000093840100918801109189011E870D8730
:100A300000918A0110918B016D857E85600F711F79
:100A40007695679590E080E00E94B8071B012C0125
:100A500020922701309228014092290150922A01C8
:100A6000609080017090810120918201309183011A
:100A70003E832D83B901660D771D7695679590E0CD
:100A800080E00E94B80769837A838B839C8360939C
:100A90002F01709330018093310190933201AD8525
:100AA000BE85BD01BB0F880B990B0E94BA07A2013E
:100AB00091010E9446079B01AC010E946F0820E053
:100AC00030E0A9010E9447076B017C01B801110FBA
:100AD000880B990B0E94BA07A20191010E94460758
:100AE0009B01AC010E946F08A70196010E94470775
:100AF0000E94E2086D877E878F87988B60932B0119
:100B000070932C0180932D0190932E01B301770CEB
:100B1000880B990B0E94BA0729813A814B815C812D
:100B20000E9446079B01AC010E946F0820E030E064
:100B3000A9010E9447076B017C010D811E81B8014C
:100B4000110F880B990B0E94BA0729813A814B81BA
:100B50005C810E9446079B01AC010E946F08A701BF
:100B600096010E9447070E94E2086B017C01C09237
:100B70003301D0923401E0923501F0923601C50183
:100B8000B4010E94B8076D837E838F83988720E02D
:100B900030E040EC5FE36D857E858F8598890E940B
:100BA0006F08A20191010E9447079B01AC016D8172
:100BB0007E818F8198850E94B307181674F4809106
:100BC000230190912401092E000CAA0BBB0B88165F
:100BD0009906AA06BB0608F0DBC0809121010E949D
:100BE000FC010DE810E01E821D82F80165917491F0
:100BF0008CEB91E00E943707892B09F0DDC00D8155
:100C00001E810E581F4FF801F491FD8369857A8586
:100C10008B859C850E94B8072B013C0120E030E0C9
:100C200040EC5FE3C701B6010E946F0829813A8159
:100C30004B815C810E9447079B01AC01C301B2015B
:100C40000E946A0818160CF0C6C01D811F3309F4F3
:100C5000C2C0E091B2011E0F1093B20150E040E01B
:100C600064E670E090E080E00E94E6010E945C0390
:100C700080911D0190911E01A0911F01B091200152
:100C800088159905AA05BB0578F481E00E94AA029F
:100C90008BE39FE10197F1F744E650E070E060E0FC
:100CA00090E080E00E94E601A091B201E0E9F1E06D
:100CB00001900020E9F7CF0181599140E1EAF1E08C
:100CC00001900020E9F7BF01625A714030E020E056
:100CD000009709F08EC0A0939001E1E08091D401CB
:100CE0008111E0E0E195F0E0EF53FE4F84898068E8
:100CF0000E94AA02A0E9B1E00D900020E9F7AD0141
:100D00004159514060E971E081EC91E00E94B501E8
:100D1000E091D401E23008F08AC0E150F0E0EF53F6
:100D2000FE4F848980680E94AA02E1EAF1E0019006
:100D30000020E9F7AF01425A514061EA71E081ECCD
:100D400091E00E94B50100E010E0012B09F4B3CD61
:100D50000E940000B0CD109200012FB7F89480914E
:100D6000B4019091B501A091B601B091B7012FBF28
:100D70008093050190930601A0930701B0930801A9
:100D800006CE50E040E070E060E090E080E00ACE07
:100D900021E030E088159905AA05BB0510F030E088
:100DA00020E08091250190912601281739070CF049
:100DB00018CF8091220113CF2D813E812F5F3F4FAD
:100DC0003E832D830E5F1F4F2A31310509F00DCF71
:100DD0000FE30D831BCF50E040E070E060E084E65D
:100DE00090E042CF41E150E0841795070CF473CFB7
:100DF0009A01A9014F5F5F4FF901E057FE4FB081A3
:100E0000FA01E057FE4FB0832031310569F7209198
:100E1000A0012093A101E0E9F1E09F0120593140B8
:100E200026173707FCF62189228B3196F6CFE1E0B1
:100E300075CFE1ECF1E0138212828BE391E09183B4
:100E400080838CE084838FEF85838BE0868385E0CD
:100E5000878384E0808783E0818782E082871386AE
:100E6000148615861686178681E00C94B002FB0165
:100E7000DC018D91059080190110D9F3990B08952B
:100E8000EE0FFF1F0590F491E02D09945058BB27F9
:100E9000AA270E945E070C9430080E94220838F0AE
:100EA0000E94290820F039F49F3F19F426F40C948D
:100EB0001F080EF4E095E7FB0C941908E92F0E9437
:100EC000410858F3BA17620773078407950720F0A3
:100ED00079F4A6F50C9463080EF4E0950B2EBA2F66
:100EE000A02D0B01B90190010C01CA01A001112430
:100EF000FF27591B99F0593F50F4503E68F11A16DC
:100F0000F040A22F232F342F4427585FF3CF46956C
:100F100037952795A795F0405395C9F77EF41F168E
:100F2000BA0B620B730B840BBAF09150A1F0FF0F58
:100F3000BB1F661F771F881FC2F70EC0BA0F621F44
:100F4000731F841F48F4879577956795B795F79534
:100F50009E3F08F0B0CF9395880F08F09927EE0FC9
:100F60009795879508950E94F50708F481E0089504
:100F7000E89409C097FB3EF4909580957095619533
:100F80007F4F8F4F9F4F9923A9F0F92F96E9BB27E9
:100F90009395F695879577956795B795F111F8CF65
:100FA000FAF4BB0F11F460FF1BC06F5F7F4F8F4FD0
:100FB0009F4F16C0882311F096E911C0772321F0C6
:100FC0009EE8872F762F05C0662371F096E8862F5E
:100FD00070E060E02AF09A95660F771F881FDAF7B5
:100FE000880F9695879597F90895990F0008550FE2
:100FF000AA0BE0E8FEEF16161706E807F907C0F09F
:1010000012161306E407F50798F0621B730B840BA6
:10101000950B39F40A2661F0232B242B252B21F480
:1010200008950A2609F4A140A6958FEF811D811D20
:10103000089597F99F6780E870E060E008959FEF5A
:1010400080EC089500240A9416161706180609065F
:10105000089500240A94121613061406050608952E
:10106000092E0394000C11F4882352F0BB0F40F4B6
:10107000BF2B11F460FF04C06F5F7F4F8F4F9F4FF6
:10108000089557FD9058440F551F59F05F3F71F078
:101090004795880F97FB991F61F09F3F79F08795DF
:1010A0000895121613061406551FF2CF4695F1DF68
:1010B00008C0161617061806991FF1CF86957105F8
:1010C000610508940895E894BB2766277727CB012C
:1010D00097F908950E94F50708F48FEF08950E948C
:1010E00082080C9430080E94220838F00E942908D7
:1010F00020F0952311F00C9419080C941F0811246A
:101100000C9464080E94410870F3959FC1F3950FF9
:1011100050E0551F629FF001729FBB27F00DB11D7B
:10112000639FAA27F00DB11DAA1F649F6627B00D0B
:10113000A11D661F829F2227B00DA11D621F739FF4
:10114000B00DA11D621F839FA00D611D221F749F02
:101150003327A00D611D231F849F600D211D822F49
:10116000762F6A2F11249F5750409AF0F1F0882370
:101170004AF0EE0FFF1FBB1F661F771F881F91509D
:101180005040A9F79E3F510580F00C9419080C942B
:1011900064085F3FE4F3983ED4F3869577956795AE
:1011A000B795F795E7959F5FC1F7FE2B880F911DC7
:1011B0009695879597F9089519F416F40C941F08DD
:1011C0000C9422090E944908B8F39923C9F3B6F395
:1011D0009F57550B87FF0E9430090024A0E640EA84
:1011E000900180585695979528F4805C660F771F7C
:1011F000881F20F026173707480730F4621B730B4F
:10120000840B202931294A2BA69517940794202571
:1012100031254A2758F7660F771F881F20F02617B9
:101220003707480730F4620B730B840B200D311D18
:10123000411DA09581F7B901842F9158880F96958B
:10124000879508959F3F31F0915020F487957795C9
:101250006795B795880F911D9695879597F908958D
:1012600091505040660F771F881FD2F70895F89469
:02127000FFCFAE
:10127200000000000000000000000000000000006C
:1012820000000000000000000032000000D0070053
:1012920000303164002C010000000000000000005A
:1012A20000000000000000000000005603B501E34A
:1012B20001E2013130303000313031300030303134
:1012C20030003030303000303131310030313030A8
:1012D20000303131300031313031003030303100C6
:1012E20031303031003130313100313130300000B5
:00000001FF
