:100000000C9463000C948B000C948B000C948B006C
:100010000C948B000C948B000C948B000C948B0034
:100020000C948B000C948B000C948B000C948B0024
:100030000C948B000C948B000C948B000C948B0014
:100040000C94C4030C948B000C948B000C948B00C8
:100050000C948B000C948B000C948B000C948B00F4
:100060000C948B000C948B000000000023002600F1
:10007000290000000000240027002A0000000000E2
:10008000250028002B0004040404040404040202D4
:100090000202020203030303030301020408102007
:1000A0004080010204081020010204081020000012
:1000B0000008000201000003040700000000000027
:1000C00000004506120811241FBECFEFD8E0DEBFA6
:1000D000CDBF24E0A2E8B1E001C01D92A934B2076F
:1000E000E1F711E0A0E0B1E0E4E0F5E102C0059045
:1000F0000D92A238B107D9F710E0C2E6D0E004C0F3
:100100002197FE010E947D08C136D107C9F70E94E0
:100110001F040C94750A0C940000833081F028F4BD
:10012000813099F08230A9F008958730A9F08830A5
:10013000C9F08430B1F4809180008F7D03C080913C
:1001400080008F7780938000089584B58F7784BD79
:10015000089584B58F7DFBCF8091B0008F77809319
:10016000B00008958091B0008F7DF9CF1F93CF9399
:10017000DF93282F30E0F901E255FF4F8491F90118
:10018000E656FF4FD491F901EA57FF4FC491CC23B3
:10019000A9F0162F81110E948D00EC2FF0E0EE0FD8
:1001A000FF1FE458FF4FA591B4918FB7F894EC91DD
:1001B000111108C0D095DE23DC938FBFDF91CF9162
:1001C0001F910895DE2BF8CFCF93DF9390E0FC01D1
:1001D000E656FF4F24918A579F4FFC018491882354
:1001E000D1F090E0880F991FFC01EE58FF4FA591C8
:1001F000B491FC01E458FF4FC591D49161110EC038
:100200009FB7F8948C91E22FE0958E238C932881F0
:10021000E223E8839FBFDF91CF9108958FB7F894D1
:10022000EC91E22BEC938FBFF6CF1F93CF93DF932C
:10023000182FEB0161E00E94E400209739F460E0A0
:10024000812FDF91CF911F910C94B600CF3FD10544
:1002500011F461E0F5CFE12FF0E0E255FF4FE491BA
:10026000E33031F140F4E130B1F0E230E1F0C03898
:10027000D1057CF7E4CFE73029F1E83059F1E430DB
:10028000B1F780918000806280938000D0938B00D2
:10029000C0938A0004C084B5806884BDC7BDDF9167
:1002A000CF911F91089584B5806284BDC8BDF7CFFA
:1002B00080918000806880938000D0938900C093F3
:1002C0008800EDCF8091B00080688093B000C0932B
:1002D000B300E5CF8091B00080628093B000C093FE
:1002E000B400DDCF3FB7F8948091290490912A049F
:1002F000A0912B04B0912C0426B5A89B05C02F3FDC
:1003000019F00196A11DB11D3FBFBA2FA92F982F3B
:100310008827BC01CD01620F711D811D911D42E036
:10032000660F771F881F991F4A95D1F708958F92FE
:100330009F92AF92BF92CF92DF92EF92FF920E9474
:1003400072014B015C0184EFC82EDD24D394E12CB3
:10035000F12C0E947201681979098A099B09683E8B
:10036000734081059105A8F321E0C21AD108E10884
:10037000F10888EE880E83E0981EA11CB11CC11400
:10038000D104E104F10429F7FF90EF90DF90CF90C2
:10039000BF90AF909F908F900895AF92BF92CF92F1
:1003A000DF92EF92FF920F931F93CF93DF936C0135
:1003B0007B018B01040F151FEB015E01AE18BF0816
:1003C000C017D10759F06991D601ED91FC910190C8
:1003D000F081E02DC6010995892B79F7C501DF91E0
:1003E000CF911F910F91FF90EF90DF90CF90BF9032
:1003F000AF900895089590E080E008950F931F93C3
:10040000CF93DF93EB018A01BC018DE00E941501BF
:10041000B80189E00E941501BE018AE0DF91CF9109
:100420001F910F910C941501CF93DF93EC0160E0C5
:100430008E810E94B60061E08E810E94B60060E06D
:100440008E810E94B6008BE891E00197F1F7DF9171
:10045000CF910895CF92DF92EF92FF920F931F9367
:10046000CF93DF936C017C0187E0E80EF11CD0E0B4
:10047000C0E0062F10E0B8010C2E02C075956795FC
:100480000A94E2F76170F70181917F010E94B60042
:100490002196C430D10579F7C601DF91CF911F9124
:1004A0000F91FF90EF90DF90CF900C941402CF92B9
:1004B000DF92EF92FF920F931F93CF93DF93EC01A4
:1004C000F62E642F8C810E94B6008D818F3F19F02B
:1004D00060E00E94B6000F2D10E08F8584FF25C0DC
:1004E0006E0187E0C80ED11CF12CE12CB8010E2C56
:1004F00002C0759567950A94E2F76170F6018191E3
:100500006F010E94B600FFEFEF1AFF0A88E0E816BD
:10051000F10461F7CE01DF91CF911F910F91FF9010
:10052000EF90DF90CF900C941402B80184E07595A1
:1005300067958A95E1F7CE010E942A026F2DCE01C0
:10054000DF91CF911F910F91FF90EF90DF90CF90AF
:100550000C942A0240E0682F8DE294E00C9457023C
:10056000CF93DF93823029F490913C04986090936C
:100570003C04809340041092410480E48093420440
:1005800080E18093430480E58093440461E080919E
:1005900031040E94E400809132048F3F19F061E041
:1005A0000E94E40061E0809133040E94E400CDE207
:1005B000D4E09E012D52344080913C0484FD0BC058
:1005C00084E090E021962817390744F461E08E8199
:1005D0000E94E400EECF88E090E0F4CF8BE39DE052
:1005E0000197F1F760E0809131040E94B60060E06D
:1005F000809133040E94B600809132048F3F19F03D
:1006000060E00E94B60080913C0484FD39C063E044
:100610008DE294E00E942A02CBE4D6E4CE01019759
:10062000F1F763E08DE294E00E942A022197F1F74E
:1006300063E08DE294E00E942A0283E592E0019754
:10064000F1F762E08DE294E00E942A0280913C047E
:1006500080620E94AA0284E080933D048CE00E94A4
:10066000AA0281E00E94AA028BE39FE10197F1F7C1
:1006700082E080933E0486E0DF91CF910C94AA0241
:1006800080620E94AA028BE496E40197F1F78091C0
:100690003C0480620E94AA0283E592E00197F1F790
:1006A00080913C0480620E94AA02D0CF41E00E9467
:1006B000570281E090E00895FC01808191810097CC
:1006C00011F00C941F090895EF92FF920F931F935E
:1006D000CF93DF93EC017B018A0188819981009798
:1006E00029F02A813B812417350788F4B8016F5F10
:1006F0007F4F0E94A809009791F0998388831B83FC
:100700000A832C813D81232B11F4FC0110821D836F
:100710000C83B701888199810E946E0A0CC0888180
:100720009981009711F00E941F09198218821D8279
:100730001C821B821A82CE01DF91CF911F910F91F3
:10074000FF90EF900895CF93DF93EC01FB018617A4
:10075000970749F0608171816115710541F044810D
:1007600055810E946403CE01DF91CF910895888165
:100770009981009711F00E941F09198218821D8229
:100780001C821B821A82EFCF1F920F920FB60F921C
:1007900011242F933F938F939F93AF93BF93809197
:1007A000250490912604A0912704B091280430914B
:1007B000240423E0230F2D3758F50196A11DB11D08
:1007C000209324048093250490932604A093270467
:1007D000B09328048091290490912A04A0912B04BD
:1007E000B0912C040196A11DB11D80932904909312
:1007F0002A04A0932B04B0932C04BF91AF919F9136
:100800008F913F912F910F900FBE0F901F901895D1
:1008100026E8230F0296A11DB11DD2CFFC01118243
:1008200010821382128215821482FB010190002033
:10083000E9F73197AF01461B570B0C946403CF9334
:10084000DF93CDB7DEB72C970FB6F894DEBF0FBE9F
:10085000CDBF789484B5826084BD84B5816084BD49
:1008600085B5826085BD85B5816085BD80916E004E
:10087000816080936E00109281008091810082607F
:1008800080938100809181008160809381008091BC
:1008900080008160809380008091B10084608093AB
:1008A000B1008091B00081608093B00080917A00A7
:1008B000846080937A0080917A00826080937A00CD
:1008C00080917A00816080937A0080917A008068BC
:1008D00080937A001092C10050E040E070E060E048
:1008E00090E080E00E94FE0160E087E00E94E4006A
:1008F00061E08DE00E94E40061E08AE00E94E40093
:1009000061E089E00E94E40010E000E06CE0B62EB7
:100910001A8219821C821B821E821D82B801685AAB
:100920007C4FCE0101960E94A30318861F821A866F
:1009300019861C861B86B80164547D4FCE0107962C
:100940000E94A303E090BA02F090BB02BE9C60013B
:10095000BF9CD00C1124BE01695F7F4FC6018E572A
:100960009E4F0E94A303BE016F5F7F4FC601885751
:100970009E4F0E94A3032FEFE21AF20AF092BB02ED
:10098000E092BA02CE0107960E945C03CE01019666
:100990000E945C030A5F1F4F0C39110509F0B8CFA4
:1009A00082E00E94B00280913E04982F9260909362
:1009B0003E0486600E94AA0280913D048B7F809352
:1009C0003D0488600E94AA020E94970180913D0424
:1009D000982F946090933D048C600E94AA020E941C
:1009E000970195EB692E90E0792E21EAE22E20E026
:1009F000F22E3DE8C32E30E0D32E4BE3842E4FE1A0
:100A0000942E50E0A52E50E0B52E0FEF10E04424B8
:100A10004394109219041092180410921B0410921F
:100A20001A0410921D0410921C0450E040E070E083
:100A300060E090E080E00E94FE01809115049091BA
:100A40001604892B21F0109216041092150450E020
:100A500040E065E271E08BE094E00E946403F30102
:100A60008491F7015490F6013490332009F4BFC00B
:100A700081110E948D00E32DF0E0EE0FFF1FE85979
:100A8000FF4FA591B4918C91582209F4B0C01093F6
:100A900019040093180410931B0400931A04109374
:100AA0001D0400931C044FEF50E06FEF70E08FEFD8
:100AB00090E00E94FE018091F403811134C04092C5
:100AC000F4032FB7F8948091250490912604A09107
:100AD0002704B09128042FBF4091F5035091F603ED
:100AE0006091F7037091F803841B950BA60BB70B6D
:100AF0008093050490930604A0930704B093080420
:100B00002FB7F8948091250490912604A091270492
:100B1000B09128042FBF8093FD039093FE03A09310
:100B2000FF03B09300048091010490910204A0910E
:100B30000304B0910404883E9340A105B105D0F0B0
:100B400081E00E94AA02C4010197F1F710921904F2
:100B50001092180410921B0410921A0410931D0492
:100B600000931C044FEF50E070E060E090E080E004
:100B70000E94FE01E1E0809140048111E0E0E195F6
:100B8000F0E0E35DFB4F848980680E94AA028091B7
:100B90003E04982F916090933E0485600E94AA02C3
:100BA000109219041092180410931B0400931A0455
:100BB00010921D0410921C0450E040E06FEF70E0B2
:100BC00090E080E00E94FE014091220450912304B5
:100BD00060911E0470911F048DE294E00E94CD018B
:100BE000A114B10409F415CF0E94000012CF109295
:100BF00019041092180410921B0410921A041092F7
:100C00001D0410921C0450E040E070E060E090E0B1
:100C100080E00E94FE018091F403882309F483CFD1
:100C20001092F4032FB7F894809125049091260434
:100C3000A0912704B09128042FBF8093F5039093CF
:100C4000F603A093F703B093F8032FB7F8948091BD
:100C5000250490912604A0912704B09128042FBF69
:100C60004091FD035091FE036091FF0370910004D9
:100C7000841B950BA60BB70B809301049093020481
:100C8000A0930304B09304044ECF0F931F93CF930C
:100C9000DF931092F5031092F6031092F70310926F
:100CA000F80382E390E0A0E0B0E08093F903909332
:100CB000FA03A093FB03B093FC031092FD03109280
:100CC000FE031092FF031092000410920104109290
:100CD000020410920304109204041092050410926E
:100CE0000604109207041092080480E3809309041C
:100CF00081E380930A041092300410922F048AE05A
:100D000091E090932E0480932D048CE08093310425
:100D10008FEF809332048BE08093330485E08093DF
:100D2000340484E08093350483E08093360482E0C9
:100D300080933704109238041092390410923A04C8
:100D400010923B0410923C0481E00E94B00265E2E4
:100D500071E08EE194E00E940E04C2E8D1E00AEB5B
:100D600012E065E271E0CE010E940E0465E271E0DE
:100D7000CE0106960E940E042C960C171D0789F7CB
:100D800088E090E09093140480931304109216046A
:100D9000109215040E94830890931204809311040A
:100DA00065E271E08BE094E00E940E046CE371E078
:100DB0008CEB92E00E940E0462E171E082EC92E022
:100DC0000E940E0467E171E088EC92E00E940E043C
:100DD0006CE271E08EEC92E00E940E0464E271E03D
:100DE00084ED92E00E940E046CE171E08AED92E0E5
:100DF0000E940E0461E371E080EE92E00E940E0416
:100E000061E271E086EE92E00E940E0463E271E01E
:100E10008CEE92E00E940E0466E271E082EF92E0B6
:100E20000E940E0466E371E088EF92E00E940E04D7
:100E30006BE271E08EEF92E00E940E0466E471E0D6
:100E400084E093E00E940E046EE171E08AE093E09A
:100E50000E940E0467E271E080E193E00E940E04BC
:100E600060E371E086E193E00E940E0465E371E0C7
:100E70008CE193E00E940E046DE171E082E293E068
:100E80000E940E0462E271E088E293E00E940E0488
:100E90006DE371E08EE293E00E940E046BE371E07B
:100EA00084E393E00E940E046AE371E08AE393E036
:100EB0000E940E0465E471E080E493E00E940E0459
:100EC0006FE371E086E493E00E940E0464E471E055
:100ED0008CE493E00E940E0469E471E082E593E003
:100EE0000E940E046EE471E088E593E00E940E0417
:100EF00060E571E08EE593E00E940E0462E571E02A
:100F000084E693E00E940E0464E571E08AE693E0D3
:100F10000E940E0466E571E080E793E00E940E04F3
:100F200068E571E086E793E00E940E046AE571E0EF
:100F30008CE793E00E940E046CE571E082E893E098
:100F40000E940E046EE571E088E893E00E940E04B2
:100F500060E671E08EE893E00E940E0462E671E0C4
:100F600084E993E00E940E0464E671E08AE993E06C
:100F70000E940E0466E671E080EA93E00E940E048F
:100F800068E671E086EA93E00E940E046AE671E08A
:100F90008CEA93E00E940E046CE671E082EB93E031
:100FA0000E940E046EE671E088EB93E00E940E044E
:100FB00060E771E08EEB93E00E940E0462E771E05F
:100FC00084EC93E00E940E0464E771E08AEC93E005
:100FD0000E940E0466E771E080ED93E00E940E042B
:100FE00068E771E086ED93E00E940E046AE771E025
:100FF0008CED93E00E940E046CE771E082EE93E0CA
:101000000E940E046EE771E088EE93E00E940E04E9
:1010100060E871E08EEE93E0DF91CF911F910F9128
:101020000C940E04CF93DF93C4EFD3E02697CE0148
:101030000E945C0383E0C835D807C1F7C8E5D3E058
:101040002697CE010E945C0382E0CC3BD807C1F713
:101050008BE094E00E945C03809111049091120453
:101060000E941F09CAEBD2E02C97CE0106960E947F
:101070005C03CE010E945C0381E0C238D807A1F76F
:101080008EE194E0DF91CF910C945C032F923F921C
:101090004F925F926F927F928F929F92AF92BF9288
:1010A000CF92DF92EF92FF920F931F93CF93DF9334
:1010B000CDB7DEB7CA1BDB0B0FB6F894DEBF0FBE91
:1010C000CDBF09942A88398848885F846E847D84DE
:1010D0008C849B84AA84B984C884DF80EE80FD80E0
:1010E0000C811B81AA81B981CE0FD11D0FB6F89456
:1010F000DEBF0FBECDBFED010895EE0FFF1F0590BF
:10110000F491E02D09940F931F93CF93DF938230D6
:10111000910510F482E090E0E0914704F0914804DA
:1011200030E020E0B0E0A0E0309799F421153105DF
:1011300009F44AC0281B390B24303105D8F58A81BF
:101140009B816115710589F1FB0193838283FE0107
:1011500011C0408151810281138148175907E0F085
:101160004817590799F4109761F012960C9312974B
:1011700013961C933296CF01DF91CF911F910F915F
:1011800008950093470410934804F4CF21153105C6
:1011900051F04217530738F0A901DB019A01BD0154
:1011A000DF01F801C1CFEF01F9CF9093480480939C
:1011B0004704CDCFFE01E20FF31F8193919322509C
:1011C000310939832883D7CF2091450430914604D3
:1011D000232B41F420910201309103013093460406
:1011E0002093450420910001309101012115310522
:1011F00041F42DB73EB74091040150910501241BE5
:10120000350BE0914504F0914604E217F307A0F492
:101210002E1B3F0B2817390778F0AC014E5F5F4F4C
:101220002417350748F04E0F5F1F50934604409334
:101230004504819391939FCFF0E0E0E09CCFCF9362
:10124000DF930097E9F0FC01329713821282A0919C
:101250004704B0914804ED0130E020E01097A1F47C
:1012600020813181820F931F2091450430914604E3
:101270002817390709F061C0F0934604E09345044C
:10128000DF91CF910895EA01CE17DF07E8F54A8193
:101290005B819E0141155105B1F7E901FB83EA83AA
:1012A00049915991C40FD51FEC17FD0761F4808156
:1012B00091810296840F951FE90199838883828129
:1012C00093819B838A83F0E0E0E012968D919C915C
:1012D00013970097B9F52D913C911197CD01029686
:1012E000820F931F20914504309146042817390737
:1012F00039F6309751F51092480410924704B09394
:101300004604A0934504BCCFD383C283408151815E
:10131000840F951FC817D90761F44E5F5F4F88810E
:101320009981480F591F518340838A819B81938300
:1013300082832115310509F0B0CFF0934804E09382
:1013400047049ECFFD01DC01C0CF13821282D7CFAC
:10135000B0E0A0E0EEEAF9E00C9448088C010097B8
:1013600051F4CB010E9483088C01C801CDB7DEB7D0
:10137000E0E10C946408FC01E60FF71F9C01225089
:101380003109E217F30708F49DC0D901CD91DC9132
:101390001197C617D70798F0C530D10530F3CE01A5
:1013A00004978617970708F3C61BD70B2297C1939C
:1013B000D1936D937C93CF010E941F09D6CF5B011F
:1013C000AC1ABD0A4C018C0E9D1EA0914704B09131
:1013D0004804512C412CF12CE12C109731F58091CF
:1013E0004504909146048815990509F05CC046169D
:1013F000570608F058C080910001909101010097B4
:1014000041F48DB79EB74091040150910501841BB2
:10141000950BE817F90708F055C0F0934604E093E0
:101420004504F90171836083A0CF8D919C91119740
:1014300012966C90129713967C901397A815B90585
:1014400059F56C0142E0C40ED11CCA14DB0420F132
:10145000AC014A195B09DA011296159780F0628295
:10146000738251834083D9016D937C93E114F1041D
:1014700071F0D7011396FC93EE93129776CF2296D4
:101480008C0F9D1FF90191838083F301EFCFF093BF
:101490004804E093470469CF4816590608F42C0124
:1014A0007D01D3019ACFCB010E9483087C01009774
:1014B00049F0AE01B8010E94650AC8010E941F09E7
:1014C000870153CF10E000E050CFFB01DC0102C0E8
:1014D00001900D9241505040D8F70895FB01DC0176
:1014E00001900D920020E1F7089510E0C2E6D0E0EF
:1014F00004C0FE010E947D082196C336D107C9F7BA
:04150000F894FFCF8D
:10150400000049048000000000005603CD01FB01E7
:10151400FA01313030300031303130003030313088
:101524000030303030003031313100303130300073
:101534003031313000313130310030303031003130
:101544003030310031303131003131303000410040
:10155400420043004400450046004700480049005B
:101564004A004B004C004D004E004F00500051000B
:1015740052005300540055005600570058005900BB
:021584005A000B
:00000001FF
