:100000000C9462000C948A000C948A000C948A0070
:100010000C948A000C948A000C948A000C948A0038
:100020000C948A000C948A000C948A000C948A0028
:100030000C948A000C948A000C948A000C948A0018
:100040000C94DD030C948A000C944D040C9427044A
:100050000C948A000C948A000C948A000C948A00F8
:100060000C948A000C948A000000000023002600F3
:10007000290000000000240027002A0000000000E2
:10008000250028002B0004040404040404040202D4
:100090000202020203030303030301020408102007
:1000A0004080010204081020010204081020000012
:1000B0000008000201000003040700000000000027
:1000C0000000E20411241FBECFEFD8E0DEBFCDBF99
:1000D00012E0A0E0B1E0EEEDF6E102C005900D9275
:1000E000A833B107D9F724E0A8E3B2E001C01D921C
:1000F000A835B207E1F710E0C2E6D0E004C02197CE
:10010000FE010E940909C136D107C9F70E949A056C
:100110000C946D0B0C940000833081F028F4813036
:1001200099F08230A9F008958730A9F08830C9F09D
:100130008430B1F4809180008F7D03C08091800075
:100140008F7780938000089584B58F7784BD08955C
:1001500084B58F7DFBCF8091B0008F778093B00006
:1001600008958091B0008F7DF9CF1F93CF93DF93D7
:10017000282F30E0F901E255FF4F8491F901E6564E
:10018000FF4FD491F901EA57FF4FC491CC23A9F056
:10019000162F81110E948C00EC2FF0E0EE0FFF1F54
:1001A000E458FF4FA591B4918FB7F894EC911111D9
:1001B00008C0D095DE23DC938FBFDF91CF911F91D4
:1001C0000895DE2BF8CFCF93DF9390E0FC01E65645
:1001D000FF4F24918A579F4FFC0184918823D1F0CF
:1001E00090E0880F991FFC01EE58FF4FA591B49144
:1001F000FC01E458FF4FC591D49161110EC09FB727
:10020000F8948C91E22FE0958E238C932881E22341
:10021000E8839FBFDF91CF9108958FB7F894EC9159
:10022000E22BEC938FBFF6CFAF92BF92CF92DF92CB
:10023000EF92FF920F931F93CF93DF936C017B019B
:100240008B01040F151FEB015E01AE18BF08C0172C
:10025000D10759F06991D601ED91FC910190F0819F
:10026000E02DC6010995892B79F7C501DF91CF9162
:100270001F910F91FF90EF90DF90CF90BF90AF90C4
:100280000895FC01538D448D252F30E0842F90E09C
:10029000821B930B541710F0CF9608950197089581
:1002A000FC01918D828D981761F0A28DAE0FBF2F4A
:1002B000B11D5D968C91928D9F5F9F73928F90E0A0
:1002C00008958FEF9FEF0895FC01918D828D98170F
:1002D00031F0828DE80FF11D858D90E008958FEF4C
:1002E0009FEF0895FC01918D228D892F90E0805C15
:1002F0009F4F821B91098F739927089581E492E0A3
:100300000E94720121E0892B09F420E0822F0895D8
:1003100080E090E0892B29F00E947E0181110C94ED
:1003200000000895FC01A48DA80FB92FB11DA35A98
:10033000BF4F2C91848D90E001968F739927848F05
:10034000A689B7892C93A089B1898C918370806428
:100350008C93938D848D981306C00288F389E02DC9
:1003600080818F7D80830895EF92FF920F931F937A
:10037000CF93DF93EC0181E0888F9B8D8C8D981358
:100380001AC0E889F989808185FF15C09FB7F89464
:10039000EE89FF896083E889F989808183708064B0
:1003A00080839FBF81E090E0DF91CF911F910F91FB
:1003B000FF90EF900895F62E0B8D10E00F5F1F4F0A
:1003C0000F731127E02E8C8D8E110CC00FB607FC19
:1003D000FACFE889F989808185FFF5CFCE010E94A7
:1003E0009201F1CFEB8DEC0FFD2FF11DE35AFF4F82
:1003F000F0829FB7F8940B8FEA89FB898081806235
:10040000CFCFCF93DF93EC01888D8823B9F0AA89F1
:10041000BB89E889F9898C9185FD03C0808186FDBF
:100420000DC00FB607FCF7CF8C9185FFF2CF80810E
:1004300085FFEDCFCE010E949201E9CFDF91CF91F0
:100440000895089590E080E00895FB010190002058
:10045000E9F73197AF01461B570BDC01ED91FC9199
:100460000280F381E02D0994CF93DF93682F81E41C
:1004700092E00E94B401EC0162E571E081E492E057
:100480000E9425028C0F9D1FDF91CF910895CF937D
:10049000DF93BC0181E492E00E942502EC0162E559
:1004A00071E081E492E00E9425028C0F9D1FDF9194
:1004B000CF9108956115710511F00C94250290E01B
:1004C00080E00895CF93FC0101900020E9F7319777
:1004D000E81BF90BE330F10588F4C62FE80FF91F8C
:1004E0006083118265E571E081E492E00E945A0226
:1004F0008C2F0E94340281E0CF91089580E0FCCFE0
:10050000FC0163A5CD960C946202FC0164A5CD9616
:100510000C946202CF93DF93EC0160E08E810E9425
:10052000B50061E08E810E94B50060E08E810E947E
:10053000B5008BE891E00197F1F7DF91CF91089535
:10054000CF92DF92EF92FF920F931F93CF93DF939F
:100550006C017C0187E0E80EF11CD0E0C0E0062FC2
:1005600010E0B8010C2E02C0759567950A94E2F769
:100570006170F70181917F010E94B5002196C4301E
:10058000D10579F7C601DF91CF911F910F91FF90AF
:10059000EF90DF90CF900C948A02CF92DF92EF928F
:1005A000FF920F931F93CF93DF93EC01F62E642FEE
:1005B0008C810E94B5008D818F3F19F060E00E9410
:1005C000B5000F2D10E08F8584FF25C06E0187E0F8
:1005D000C80ED11CF12CE12CB8010E2C02C075956F
:1005E00067950A94E2F76170F60181916F010E94AC
:1005F000B500FFEFEF1AFF0A88E0E816F10461F793
:10060000CE01DF91CF911F910F91FF90EF90DF907E
:10061000CF900C948A02B80184E0759567958A950D
:10062000E1F7CE010E94A0026F2DCE01DF91CF91A4
:100630001F910F91FF90EF90DF90CF900C94A0024C
:1006400041E00E94CD0281E090E0089540E00C94EA
:10065000CD02CF93DF93823029F490914F049860BC
:1006600090934F04809353041092540480E4809339
:10067000550480E18093560480E58093570461E03F
:10068000809144040E94E300809145048F3F19F05B
:1006900061E00E94E30061E0809146040E94E30073
:1006A000C0E4D4E09E012054344080914F0484FD86
:1006B0000BC084E090E021962817390744F461E0EC
:1006C0008E810E94E300EECF88E090E0F4CF8BE3D0
:1006D0009DE00197F1F760E0809144040E94B5002D
:1006E00060E0809146040E94B500809145048F3FF0
:1006F00019F060E00E94B50060914F0464FD41C0B4
:1007000063E080E494E00E94A002CBE4D6E4CE0152
:100710000197F1F763E080E494E00E94A002219742
:10072000F1F763E080E494E00E94A00283E592E0A8
:100730000197F1F762E080E494E00E94A0026091EA
:100740004F04606280E494E00E94260384E080937A
:1007500050046CE080E494E00E94260361E080E4B1
:1007600094E00E9426038BE39FE10197F1F782E07A
:100770008093510466E080E494E0DF91CF910C9483
:100780002603606280E494E00E9426038BE496E4F2
:100790000197F1F760914F04606280E494E00E9459
:1007A000260383E592E00197F1F760914F046062C0
:1007B00080E494E00E942603C2CF1F920F920FB6EE
:1007C0000F9211242F933F938F939F93AF93BF93D7
:1007D00080913D0290913E02A0913F02B091400273
:1007E00030913C0223E0230F2D3758F50196A11DCF
:1007F000B11D20933C0280933D0290933E02A09352
:100800003F02B09340028091380290913902A0914A
:100810003A02B0913B020196A11DB11D80933802AE
:1008200090933902A0933A02B0933B02BF91AF91EB
:100830009F918F913F912F910F900FBE0F901F901E
:10084000189526E8230F0296A11DB11DD2CF1F9245
:100850000F920FB60F9211242F933F934F935F93F4
:100860006F937F938F939F93AF93BF93EF93FF9378
:1008700081E492E00E949201FF91EF91BF91AF91CC
:100880009F918F917F916F915F914F913F912F91A8
:100890000F900FBE0F901F9018951F920F920FB6DA
:1008A0000F9211242F938F939F93EF93FF93E091D7
:1008B0005102F09152028081E0915702F09158026A
:1008C00082FD1BC0908180915A028F5F8F732091AF
:1008D0005B02821741F0E0915A02F0E0EF5BFD4FBE
:1008E000958F80935A02FF91EF919F918F912F9155
:1008F0000F900FBE0F901F9018958081F4CFFC01D0
:100900001192119223E0DF011D922A95E9F728E068
:10091000FC013596DF01322F1D923A95E9F70D96CD
:10092000DC011D922A95E9F70895FC0110821182DD
:100930001282138214821582168217821086118603
:10094000128613861486158616861786108A118AD3
:10095000128A138A148A158A168A178A108E82E3DD
:1009600090E0A0E0B0E0818F928FA38FB48F80EDF4
:1009700097E0A0E0B0E0858F968FA78FB0A381A30A
:1009800092A3A3A3B4A384E690E096A385A38CE2EC
:1009900091E090A787A311A612A680E383A781E325
:1009A00084A715A616A617A610AA11AA12AA13AAFA
:1009B00014AA15AA16AA17AA10AE11AE12AE13AE3B
:1009C00014AE0895EF92FF920F931F93CF93DF938E
:1009D000E1E4F2E01382128288EE93E0A0E0B0E05E
:1009E00084839583A683B78388E391E09183808392
:1009F00085EC90E09587848784EC90E097878687E4
:100A000080EC90E0918B808B81EC90E0938B828BDB
:100A100082EC90E0958B848B86EC90E0978B868BB4
:100A2000118E128E138E148EE0E4F4E01382128283
:100A30008AE491E0918380838CE084838FEF8583C7
:100A40008BE0868385E0878384E0808783E08187ED
:100A500082E082871386148615861686178681E0C3
:100A60000E9429038EED92E00E94950487E090E0B9
:100A700090931C0380931B038DE193E00E949504E7
:100A80008AE593E00E94950487E993E00E947F0441
:100A90008AE0E82EF12CF092AE03E092AD0309E07B
:100AA00010E01093B0030093AF03C6E0D0E0D09302
:100AB000B203C093B10384E3E0E0F1E0A3EBB3E061
:100AC00001900D928A95E1F78BE1E4EAF1E0A7EE5F
:100AD000B3E001900D928A95E1F783E094E00E94E3
:100AE0007F0410921904109218048FE0EAE1F4E0F8
:100AF000DF01982F1D929A95E9F710922A0410921F
:100B00002904EBE2F4E0DF011D928A95E9F7F09207
:100B10003B04E0923A0410933D0400933C04D093CC
:100B20003F04C0933E04DF91CF911F910F91FF903E
:100B3000EF900895CF93DF93CDB7DEB76C970FB6E4
:100B4000F894DEBF0FBECDBF789484B5826084BDBB
:100B500084B5816084BD85B5826085BD85B58160C1
:100B600085BD80916E00816080936E00109281003F
:100B700080918100826080938100809181008160FA
:100B800080938100809180008160809380008091BB
:100B9000B10084608093B1008091B0008160809347
:100BA000B00080917A00846080937A0080917A000E
:100BB000826080937A0080917A00816080937A00CD
:100BC00080917A00806880937A001092C100E09151
:100BD0005102F091520282E08083E0914D02F09147
:100BE0004E021082E0914F02F09150028FEC808310
:100BF00010925902E0915502F091560286E08083EE
:100C0000E0915302F0915402808180618083E091F1
:100C10005302F0915402808188608083E0915302F6
:100C2000F0915402808180688083E0915302F091BA
:100C3000540280818F7D808360E080911B030E943D
:100C4000E30061E080913A040E94E30061E080915A
:100C50003C040E94E30061E080913E040E94E300B6
:100C600082E00E94290360915104862F8260809364
:100C70005104666080E494E00E9426036091500471
:100C8000862F8460809350046C6080E494E00E941E
:100C900026038FEB91E00E94470240E0242E40E0C3
:100CA000342E2FB7F89480913D0290913E02A0918E
:100CB0003F02B09140022FBF8093DF029093E00289
:100CC000A093E102B093E20220911B0330911C0338
:100CD0003327F901E255FF4F8491F901E656FF4FA2
:100CE0001491F901EA57FF4F0491002309F4EDC173
:100CF00081110E948C00E02FF0E0EE0FFF1FE859F9
:100D0000FF4FA591B491EC911E2309F4DEC18091AF
:100D1000DE02811148C08091DF029091E002A09133
:100D2000E102B091E2024091E7025091E802609145
:100D3000E9027091EA02841B950BA60BB70B409158
:100D4000F7025091F8026091F9027091FA02481787
:100D500059076A077B0738F58FEC91E00E9447023C
:100D600081E08093DE028091DF029091E002A09109
:100D7000E102B091E2028093E7029093E802A0932F
:100D8000E902B093EA028091E3029091E402A0911B
:100D9000E502B091E6028093EB029093EC02A093FF
:100DA000ED02B093EE028091DF029091E002A091FB
:100DB000E102B091E2024091EB025091EC026091AD
:100DC000ED027091EE02841B950BA60BB70B80937E
:100DD000F3029093F402A093F502B093F602E09030
:100DE0009C03F0909D03B7017695679590E080E0B5
:100DF0000E94F3094B015C01809287039092880363
:100E0000A0928903B0928A030091A4031091A503D4
:100E1000B8017695679590E080E00E94F3092B0178
:100E20003C0140928F035092900360929103709224
:100E30009203B701FF0C880B990B0E94F509A501DD
:100E400094010E940F099B01AC010E94A50A20E0B9
:100E500030E0A9010E94100920E030E0A9010E94C1
:100E600081090E94180B6B017C01C0928B03D09208
:100E70008C03E0928D03F0928E03B801110F880B62
:100E8000990B0E94F509A30192010E940F099B0191
:100E9000AC010E94A50A20E030E0A9010E941009DF
:100EA00020E030E0A9010E9481090E94180B6093A4
:100EB00093037093940380939503909396034090CB
:100EC0006B0350906C0360906D0370906E03C301D0
:100ED000B2010E94F309698F7A8F8B8F9C8F20E07B
:100EE00030E040EC5FE3C701B6010E94A50AA5010E
:100EF00094010E9410099B01AC01698D7A8D8B8D44
:100F00009C8D0E947C0918167CF480917F0390913F
:100F10008003092E000CAA0BBB0BE5E8F2E0841558
:100F20009505A605B70510F0E0E8F2E08AE593E044
:100F30000995E3E0F4E001900020E9F7E850F4407F
:100F400029F080914603882309F418C110E000E0DD
:100F5000F801EE0FFF1FED54FC4F6591749187E986
:100F600093E00E940009892B09F0DDC060EE71E07A
:100F700081E492E00E945A0267E973E081E492E022
:100F80000E945A026CEE71E081E492E00E945A02E3
:100F900009511C4FF80184910E943402F801049118
:100FA00000930204109298031092970310929D03ED
:100FB00010929C031092A5031092A4030F3309F41E
:100FC000CAC080914204909143049C838B838AE43D
:100FD00091E09A838983809144048D8380914504B4
:100FE0008E83809146048F8388E0E7E4F4E0DE019D
:100FF000189601900D928A95E1F780914F04888BA5
:1010000080915004898B809151048A8B8091520485
:101010008B8BA0915304AC8B409154045091550498
:1010200060915604709157044D8B5E8B6F8B788F57
:10103000E8E1F4E001900020E9F7CF018951944004
:10104000E9E2F4E001900020E9F7BF016A52744040
:1010500030E020E0009709F0B3C000931804E1E00D
:10106000A111E0E0E19585E190E08C0F9D1F8E0FCE
:10107000911DFC0160816068CE0101960E942603EB
:1010800068E174E0CE0101960E945A02EC89E230D8
:1010900008F0B4C0E15085E190E08C0F9D1F8E0FE9
:1010A000911DFC0160816068CE0101960E942603BB
:1010B00069E274E0CE0101960E945A0260E08091DC
:1010C0003A040E94B50061E04CC087ED91E00E94B7
:1010D00047021092DE022FB7F89480913D02909162
:1010E0003E02A0913F02B09140022FBF8093E302E5
:1010F0009093E402A093E502B093E6024091DF02F0
:101100005091E0026091E1027091E202841B950B24
:10111000A60BB70B8093EF029093F002A093F1021D
:10112000B093F20240CE0F5F1F4F0A31110509F054
:101130000FCF60EE71E081E492E00E945A0267E90D
:1011400073E081E492E00E945A028DEF91E00E94E8
:1011500047020FE325CF61E080913A040E94B50079
:1011600060E080913C040E94B50060E080913E0404
:101170000E94B50089E192E00E94470260E0809100
:101180003A040E94B50060E080913C040E94B500E2
:1011900060E080913E040E94B5002114310409F4FE
:1011A00080CD0E947E01882309F477CD0E94000043
:1011B00074CD41E150E0841795070CF44ECF9A01AD
:1011C000A9014F5F5F4FF901E85EFB4FB081FA0163
:1011D000E85EFB4FB0832031310569F72091280488
:1011E00020932904E9E2F4E030E020E026173707F5
:1011F00004F72F5F3F4F41914083F8CFE1E04BCFA1
:10120000FB01DC018D91059080190110D9F3990B38
:101210000895EE0FFF1F0590F491E02D09945058AA
:10122000BB27AA270E9427090C946B0A0E945D0A1B
:1012300038F00E94640A20F039F49F3F19F426F434
:101240000C945A0A0EF4E095E7FB0C94540AE92F2B
:101250000E947C0A58F3BA17620773078407950740
:1012600020F079F4A6F50C949E0A0EF4E0950B2E6E
:10127000BA2FA02D0B01B90190010C01CA01A001E8
:101280001124FF27591B99F0593F50F4503E68F143
:101290001A16F040A22F232F342F4427585FF3CF84
:1012A000469537952795A795F0405395C9F77EF455
:1012B0001F16BA0B620B730B840BBAF09150A1F09E
:1012C000FF0FBB1F661F771F881FC2F70EC0BA0F24
:1012D000621F731F841F48F4879577956795B795AC
:1012E000F7959E3F08F0B0CF9395880F08F09927A7
:1012F000EE0F9795879508950E94300A08F481E0D3
:1013000008950E9495090C946B0A0E94640A58F093
:101310000E945D0A40F029F45F3F29F00C94540AC2
:1013200051110C949F0A0C945A0A0E947C0A68F38B
:101330009923B1F3552391F3951B550BBB27AA278E
:1013400062177307840738F09F5F5F4F220F331FC8
:10135000441FAA1FA9F335D00E2E3AF0E0E832D090
:1013600091505040E695001CCAF72BD0FE2F29D093
:10137000660F771F881FBB1F261737074807AB0765
:10138000B0E809F0BB0B802DBF01FF2793585F4FDA
:101390003AF09E3F510578F00C94540A0C949F0A41
:1013A0005F3FE4F3983ED4F3869577956795B795BC
:1013B000F7959F5FC9F7880F911D9695879597F9C7
:1013C0000895E1E0660F771F881FBB1F6217730740
:1013D0008407BA0720F0621B730B840BBA0BEE1F55
:1013E00088F7E0950895E89409C097FB3EF490953E
:1013F0008095709561957F4F8F4F9F4F9923A9F0EE
:10140000F92F96E9BB279395F6958795779567957C
:10141000B795F111F8CFFAF4BB0F11F460FF1BC0C0
:101420006F5F7F4F8F4F9F4F16C0882311F096E953
:1014300011C0772321F09EE8872F762F05C0662301
:1014400071F096E8862F70E060E02AF09A95660FBA
:10145000771F881FDAF7880F9695879597F9089573
:10146000990F0008550FAA0BE0E8FEEF16161706B5
:10147000E807F907C0F012161306E407F50798F01D
:10148000621B730B840B950B39F40A2661F0232B36
:10149000242B252B21F408950A2609F4A140A695B2
:1014A0008FEF811D811D089597F99F6780E870E097
:1014B00060E008959FEF80EC089500240A941616CA
:1014C000170618060906089500240A941216130632
:1014D000140605060895092E0394000C11F48823C0
:1014E00052F0BB0F40F4BF2B11F460FF04C06F5FDC
:1014F0007F4F8F4F9F4F089557FD9058440F551FB2
:1015000059F05F3F71F04795880F97FB991F61F085
:101510009F3F79F087950895121613061406551FFC
:10152000F2CF4695F1DF08C0161617061806991F68
:10153000F1CF86957105610508940895E894BB275D
:1015400066277727CB0197F908950E94B80A0C9473
:101550006B0A0E945D0A38F00E94640A20F095230D
:1015600011F00C94540A0C945A0A11240C949F0AFA
:101570000E947C0A70F3959FC1F3950F50E0551FB0
:10158000629FF001729FBB27F00DB11D639FAA27D8
:10159000F00DB11DAA1F649F6627B00DA11D661F27
:1015A000829F2227B00DA11D621F739FB00DA11D48
:1015B000621F839FA00D611D221F749F3327A00D02
:1015C000611D231F849F600D211D822F762F6A2F9E
:1015D00011249F5750409AF0F1F088234AF0EE0F03
:1015E000FF1FBB1F661F771F881F91505040A9F730
:1015F0009E3F510580F00C94540A0C949F0A5F3F63
:10160000E4F3983ED4F3869577956795B795F7956B
:10161000E7959F5FC1F7FE2B880F911D96958795E3
:1016200097F9089519F416F40C945A0A0C94580B6F
:101630000E94840AB8F39923C9F3B6F39F57550B58
:1016400087FF0E94660B0024A0E640EA90018058C4
:101650005695979528F4805C660F771F881F20F0B9
:1016600026173707480730F4621B730B840B2029B9
:1016700031294A2BA69517940794202531254A270E
:1016800058F7660F771F881F20F02617370748077F
:1016900030F4620B730B840B200D311D411DA0959E
:1016A00081F7B901842F9158880F969587950895F1
:1016B0009F3F31F0915020F4879577956795B795C6
:1016C000880F911D9695879597F9089591505040F0
:0E16D000660F771F881FD2F70895F894FFCF9A
:1016DE00920168016D0182017A0172018701770121
:1016EE0079017C018C0181019C0174017D018601CF
:1016FE008B01730178019301910190019B0195017A
:10170E009A019F0100000000B40114014101010281
:10171E007201500164010000000020031401220236
:10172E0021020D0A00416464656420746F207061AB
:10173E00747465726E3A20003130303000313031C1
:10174E003000303031300030303030003031313117
:10175E000030313030003031313000313130310035
:10176E0030303031003130303100313031310031F4
:10177E00313030004142434445464748494A4B4C7C
:10178E004D4E4F505152535455565758595A005367
:10179E006574757020636F6D706C6574652E007066
:1017AE007265737365640072656C65617365640060
:1017BE004D6F72736520636F64652000206D6174D8
:1017CE0063686573206C6574746572200020646FA5
:1017DE006573206E6F74206D6174636820616E791D
:1017EE00206C65747465722E00496E646961637451
:1017FE006F72207375636365737366756C6C792095
:08180E006368616E6765640008
:00000001FF
