:100000000C9463000C948B000C948B000C948B006C
:100010000C948B000C948B000C948B000C948B0034
:100020000C948B000C948B000C948B000C948B0024
:100030000C948B000C948B000C948B000C948B0014
:100040000C94AB050C948B000C948B000C948B00DF
:100050000C948B000C948B000C948B000C948B00F4
:100060000C948B000C948B000000000023002600F1
:10007000290000000000240027002A0000000000E2
:10008000250028002B0004040404040404040202D4
:100090000202020203030303030301020408102007
:1000A0004080010204081020010204081020000012
:1000B0000008000201000003040700000000000027
:1000C0000000B208860A11241FBECFEFD8E0DEBFC1
:1000D000CDBF24E0A0E9B1E001C01D92AB35B2076D
:1000E000E1F711E0A0E0B1E0EAEFF9E102C005902C
:1000F0000D92A039B107D9F710E0C2E6D0E004C0F4
:100100002197FE010E94EF0AC136D107C9F70E946C
:10011000F5050C94F00C0C940000833081F028F469
:10012000813099F08230A9F008958730A9F08830A5
:10013000C9F08430B1F4809180008F7D03C080913C
:1001400080008F7780938000089584B58F7784BD79
:10015000089584B58F7DFBCF8091B0008F77809319
:10016000B00008958091B0008F7DF9CF1F93CF9399
:10017000DF93282F30E0F901E255FF4F8491F90118
:10018000E656FF4FD491F901EA57FF4FC491CC23B3
:10019000A9F0162F81110E948D00EC2FF0E0EE0FD8
:1001A000FF1FE458FF4FA591B4918FB7F894EC91DD
:1001B000111108C0D095DE23DC938FBFDF91CF9162
:1001C0001F910895DE2BF8CFCF93DF9390E0FC01D1
:1001D000E656FF4F24918A579F4FFC018491882354
:1001E000D1F090E0880F991FFC01EE58FF4FA591C8
:1001F000B491FC01E458FF4FC591D49161110EC038
:100200009FB7F8948C91E22FE0958E238C932881F0
:10021000E223E8839FBFDF91CF9108958FB7F894D1
:10022000EC91E22BEC938FBFF6CF1F93CF93DF932C
:10023000182FEB0161E00E94E400209739F460E0A0
:10024000812FDF91CF911F910C94B600CF3FD10544
:1002500011F461E0F5CFE12FF0E0E255FF4FE491BA
:10026000E33031F140F4E130B1F0E230E1F0C03898
:10027000D1057CF7E4CFE73029F1E83059F1E430DB
:10028000B1F780918000806280938000D0938B00D2
:10029000C0938A0004C084B5806884BDC7BDDF9167
:1002A000CF911F91089584B5806284BDC8BDF7CFFA
:1002B00080918000806880938000D0938900C093F3
:1002C0008800EDCF8091B00080688093B000C0932B
:1002D000B300E5CF8091B00080628093B000C093FE
:1002E000B400DDCF3FB7F8948091280490912904A1
:1002F000A0912A04B0912B0426B5A89B05C02F3FDE
:1003000019F00196A11DB11D3FBFBA2FA92F982F3B
:100310008827BC01CD01620F711D811D911D42E036
:10032000660F771F881F991F4A95D1F708958F92FE
:100330009F92AF92BF92CF92DF92EF92FF920E9474
:1003400072014B015C0184EFC82EDD24D394E12CB3
:10035000F12C0E947201681979098A099B09683E8B
:10036000734081059105A8F321E0C21AD108E10884
:10037000F10888EE880E83E0981EA11CB11CC11400
:10038000D104E104F10429F7FF90EF90DF90CF90C2
:10039000BF90AF909F908F9008952FB7F894609181
:1003A00024047091250480912604909127042FBF86
:1003B00008950895AF92BF92CF92DF92EF92FF928D
:1003C0000F931F93CF93DF936C017B018B01040F7D
:1003D000151FEB015E01AE18BF08C017D10759F019
:1003E0006991D601ED91FC910190F081E02DC6015B
:1003F0000995892B79F7C501DF91CF911F910F9155
:10040000FF90EF90DF90CF90BF90AF90089590E075
:1004100080E008950F931F93CF93DF93EB018A0140
:10042000BC0186E00E941501B80189E00E94150117
:10043000BE018AE0DF91CF911F910F910C941501BD
:100440008091550490915604892B59F062E171E036
:1004500080915104909152040E94E00C21E0892B7C
:1004600009F020E0822F0895CF93DF93EC01809173
:100470003004909131049D838C8308969B838A83FA
:10048000009711F481E090E00E94F50A9983888337
:1004900090E080E02C813D818217930780F4E88111
:1004A000F981E80FF91F309741F0A0912C04B09129
:1004B0002D04A80FB91F2C9120830196EBCFDF915B
:1004C000CF910895FC01808191810C94910BEF9262
:1004D000FF920F931F93CF93DF93209130043091BD
:1004E0003104E90121962C173D0708F059C08C0111
:1004F00040912E0450912F044C175D0788F5C901D7
:1005000009964817590760F5E0902C04F0902D04E7
:1005100090932F0480932E04009711F481E090E0D3
:100520000E94F50A90932D0480932C04F701CF01CB
:100530008E199F092091300430913104821793075E
:1005400060F4A0912C04B0912D04A80FB91F10974E
:1005500011F080818C933196EACFC7010E94910BF4
:1005600020913004309131042C173D0770F4E09154
:100570002C04F0912D04E20FF31F309719F0D801ED
:100580008C9180832F5F3F4FEFCFD0933104C09386
:100590003004DF91CF911F910F91FF90EF9008955C
:1005A0001092310410923004F4CFFC0180819181CB
:1005B000009711F00C94910B0895CF93DF93EC0109
:1005C00080915104909152040097E9F068817981FB
:1005D00061157105B1F040915304509154042C8180
:1005E0003D814217530768F00E94E90C8C819D8180
:1005F00090935604809355041D821C82DF91CF9105
:1006000008950E94910B8881998190935204809360
:1006100051048A819B8190935404809353048C816C
:100620009D819093560480935504198218821B82F1
:100630001A82E2CFCF93DF93EC0160E08E810E94BB
:10064000B60061E08E810E94B60060E08E810E945B
:10065000B6008BE891E00197F1F7DF91CF91089513
:10066000CF92DF92EF92FF920F931F93CF93DF937E
:100670006C017C0187E0E80EF11CD0E0C0E0062FA1
:1006800010E0B8010C2E02C0759567950A94E2F748
:100690006170F70181917F010E94B6002196C430FC
:1006A000D10579F7C601DF91CF911F910F91FF908E
:1006B000EF90DF90CF900C941A03CF92DF92EF92DD
:1006C000FF920F931F93CF93DF93EC01F62E642FCD
:1006D0008C810E94B6008D818F3F19F060E00E94EE
:1006E000B6000F2D10E08F8584FF25C06E0187E0D6
:1006F000C80ED11CF12CE12CB8010E2C02C075954E
:1007000067950A94E2F76170F60181916F010E948A
:10071000B600FFEFEF1AFF0A88E0E816F10461F770
:10072000CE01DF91CF911F910F91FF90EF90DF905D
:10073000CF900C941A03B80184E0759567958A955B
:10074000E1F7CE010E9430036F2DCE01DF91CF91F2
:100750001F910F91FF90EF90DF90CF900C9430039A
:1007600040E0682F83E394E00C945D03CF93DF9324
:1007700081E0809346041092470480E4809348040B
:1007800080E18093490480E580934A0461E0809190
:1007900037040E94E400809138048F3F19F061E033
:1007A0000E94E40061E0809139040E94E400C3E308
:1007B000D4E09E01235334408091420484FD0BC059
:1007C00084E090E021962817390744F461E08E8197
:1007D0000E94E400EECF88E090E0F4CF8BE39DE050
:1007E0000197F1F760E0809137040E94B60060E065
:1007F000809139040E94B600809138048F3F19F02F
:1008000060E00E94B6008091420484FD39C063E03C
:1008100083E394E00E943003CBE4D6E4CE01019759
:10082000F1F763E083E394E00E9430032197F1F74E
:1008300063E083E394E00E94300383E592E0019754
:10084000F1F762E083E394E00E9430038091420478
:1008500080620E94B00384E0809343048CE00E9495
:10086000B00381E00E94B0038BE39FE10197F1F7B1
:1008700082E08093440486E0DF91CF910C94B00332
:1008800080620E94B0038BE496E40197F1F78091B7
:10089000420480620E94B00383E592E00197F1F781
:1008A0008091420480620E94B003D0CF41E00E9458
:1008B0005D0381E090E008950F931F93CF93DF9342
:1008C000EC0188819981009759F02A813B81261794
:1008D000370730F081E0DF91CF911F910F9108959C
:1008E0008B016F5F7F4F0E941A0C009759F099831C
:1008F00088831B830A832C813D81232B59F7FC01BC
:100900001082E8CF80E0E7CFEF92FF920F931F9322
:10091000CF93DF93EC017B018A01BA010E945C0452
:1009200028813981811114C02115310519F0C901BF
:100930000E94910B198218821D821C821B821A82CE
:10094000CE01DF91CF911F910F91FF90EF9008950D
:100950001D830C83B701C9010E94E90CF1CFCF932D
:10096000DF93EC01FB018617970749F060817181E5
:100970006115710541F0448155810E948404CE01C6
:10098000DF91CF91089588819981009711F00E949D
:10099000910B198218821D821C821B821A82EFCF52
:1009A000FC01118210821382128215821482FB01D3
:1009B00001900020E9F73197AF01461B570B0C94CB
:1009C00084046F927F928F929F92AF92BF92CF9248
:1009D000DF92EF92FF920F931F93CF93DF9300D09C
:1009E00000D000D0CDB7DEB78C017B0150E040E0F5
:1009F00062E371E08DE194E00E948404F701C0801D
:100A0000D180A480B580AC0CBD1CAC14BD0439F100
:100A1000F60181916F0189831A82E0902104F090A0
:100A20002204FFEFEF1AFF0AB7018DE194E00E9464
:100A30005C04882351F320911D0430911E048091A1
:100A4000210490912204BE016F5F7F4F820F931F9C
:100A50000E94E90CF0922204E0922104D6CF1A827F
:100A600019821C821B821E821D826DE174E0CE0100
:100A700001960E94AF046090C8027090C9028D80F8
:100A80009E80C980DA8080E9A82E81E0B82EF12C02
:100A9000E12CE614F704FCF4F501848195818815B6
:100AA000990591F4808191810097D9F0C114D10406
:100AB00039F48114910419F1FC01808190E01DC08A
:100AC000B6010E94E00C19C0FFEFEF1AFF0A8CE09C
:100AD000A80EB11CDECF62E171E0C8010E94D00413
:100AE00020C0C114D10459F08114910441F0F601E1
:100AF000808190E0919581959109892B29F7F801E2
:100B00001182108213821282158214828CE08E9DD3
:100B1000B0018F9D700D11246A567E4FC8010E944E
:100B2000AF04CE0101960E94D502C80126960FB6E9
:100B3000F894DEBF0FBECDBFDF91CF911F910F9113
:100B4000FF90EF90DF90CF90BF90AF909F908F90ED
:100B50007F906F9008951F920F920FB60F921124FD
:100B60002F933F938F939F93AF93BF9380912404D0
:100B700090912504A0912604B0912704309123047C
:100B800023E0230F2D3758F50196A11DB11D2093A9
:100B900023048093240490932504A0932604B09307
:100BA00027048091280490912904A0912A04B091EF
:100BB0002B040196A11DB11D809328049093290454
:100BC000A0932A04B0932B04BF91AF919F918F9172
:100BD0003F912F910F900FBE0F901F90189526E810
:100BE000230F0296A11DB11DD2CFCF93DF93CDB7B6
:100BF000DEB72D970FB6F894DEBF0FBECDBF789449
:100C000084B5826084BD84B5816084BD85B5826011
:100C100085BD85B5816085BD80916E0081608093C2
:100C20006E0010928100809181008260809381002B
:100C3000809181008160809381008091800081603B
:100C4000809380008091B10084608093B100809196
:100C5000B00081608093B00080917A0084608093BE
:100C60007A0080917A00826080937A0080917A0085
:100C7000816080937A0080917A00806880937A0006
:100C80001092C10060E087E00E94E40061E086E02D
:100C90000E94E40061E08AE00E94E40061E089E0F3
:100CA0000E94E40010E000E06CE0B62E1A82198287
:100CB0001C821B821E821D82B8016A597C4FCE01A4
:100CC00001960E94AF04198618861B861A861D8617
:100CD0001C86B80166537D4FCE0108960E94AF0472
:100CE000E090C802F090C902BE9C6001BF9CD00C8D
:100CF0001124BE01685F7F4FC60180579E4F0E943E
:100D0000AF04BE016F5F7F4FC6018A569E4F0E949F
:100D1000AF042FEFE21AF20AF092C902E092C80281
:100D2000CE0108960E94D502CE0101960E94D502FE
:100D30000A5F1F4F0C39110509F0B8CF0E94B603A6
:100D400080914404982F92609093440486600E949E
:100D5000B003809143048B7F8093430488600E949A
:100D6000B0030E94970180914304982F9460909360
:100D700043048C600E94B0030E94970195EB692E9A
:100D800090E0792E21EAE22E20E0F22E3DE8C32EFB
:100D900030E0D32E4BE3842E4FE1942E50E0A52E6D
:100DA00050E0B52E0FEF10E04424439450E040E0B3
:100DB00070E060E090E080E00E940A0280913004E0
:100DC00090913104892B21F010923104109230045B
:100DD00050E040E062E371E08DE194E00E94840421
:100DE0000E94CD0160930304709304048093050472
:100DF00090930604F3018491F7015490F601349026
:100E0000332009F49DC081110E948D00E32DF0E094
:100E1000EE0FFF1FE859FF4FA591B4918C91582216
:100E200009F48EC080910204811168C0809103048E
:100E300090910404A0910504B09106044091070428
:100E4000509108046091090470910A04841B950B69
:100E5000A60BB70B40910B0450910C0460910D044C
:100E600070910E04481759076A077B0708F046C0BF
:100E700010934C0400934B0410934E0400934D04C4
:100E80001093500400934F044FEF50E06FEF70E069
:100E90008FEF90E00E940A02409202040E94CD016E
:100EA00020910704309108044091090450910A04EC
:100EB000621B730B840B950B6093170470931804DB
:100EC0008093190490931A04809103049091040470
:100ED000A0910504B0910604809307049093080440
:100EE000A0930904B0930A040E94CD0160930F04FB
:100EF0007093100480931104909312048091130452
:100F000090911404A0911504B0911604853FF1E06E
:100F10009F07A105B10508F0A7C08B3F9105A1056A
:100F2000B10508F048C08BE194E00E9467024FEFE2
:100F300050E06FEF70E08FEF90E00E940A023FC038
:100F400010924C0410924B0410924E0410924D04D7
:100F50001092500410924F0450E040E070E060E0C6
:100F600090E080E00E940A0280910204882331F21E
:100F7000109202040E94CD0160930704709308044C
:100F80008093090490930A040E94CD0120910F04DC
:100F9000309110044091110450911204621B730BA4
:100FA000840B950B609313047093140480931504C1
:100FB00090931604A3CF8CE194E00E946702809185
:100FC000130490911404A0911504B0911604803D6F
:100FD0009740A105B10520F181E00E94B003C40152
:100FE0000197F1F78091300490913104892B21F021
:100FF000109231041092300410924C0410924B0461
:1010000010924E0410924D041093500400934F041C
:101010004FEF50E070E060E090E080E00E940A0254
:10102000E1E0809146048111E0E0E195F0E0ED5CC3
:10103000FB4F848980680E94B0030E9420028111C6
:101040000CC0409155045091560460915104709128
:10105000520483E394E00E94DA01A114B10409F47C
:10106000A5CE0E940000A2CECE0101960E943402BD
:10107000BE016F5F7F4FCE0108960E94E104CE0152
:1010800008960E94DD02CE0108960E94D502CE018C
:1010900001960E9462020E942002882309F44FC038
:1010A00010934C0400934B0410924E0410924D0484
:1010B0001092500410924F0450E040E070E060E065
:1010C0008FEF90E00E940A0280911704909118041B
:1010D000A0911904B0911A04843F9140A105B10573
:1010E00008F46DCFCE0101960E943402BE016F5FFD
:1010F0007F4FCE0108960E94E104CE0108960E941F
:10110000DD02CE0108960E94D502CE0101960E9412
:1011100062020E942002882309F451CF10934C04EC
:1011200000934B0410924E0410924D041092500400
:1011300010924F0450E040E070E060E0FCCE10926E
:101140004C0410924B0410934E0400934D041092E3
:10115000500410924F0450E040E06FEF70E090E0D8
:1011600080E0B0CF0F931F93CF93DF9310920304CF
:1011700010920404109205041092060410920704C1
:10118000109208041092090410920A0482E390E07D
:10119000A0E0B0E080930B0490930C04A0930D04A6
:1011A000B0930E0410920F041092100410921104C8
:1011B0001092120410921304109214041092150449
:1011C0001092160410921704109218041092190429
:1011D00010921A0480E380931B0481E380931C0423
:1011E00010923604109235048AE091E09093340412
:1011F000809333048CE0809337048FEF809338041E
:101200008BE08093390485E080933A0484E08093F6
:101210003B0483E080933C0482E080933D04109281
:101220003E0410923F041092400410924104109228
:1012300042040E94B60362E371E081E594E00E94FB
:10124000D004C0E9D1E008EC12E062E371E0CE0125
:101250000E94D00462E371E0CE0106960E94D004A1
:101260002C960C171D0789F788E090E090932F04C7
:1012700080932E0410923104109230040E94F50ADB
:1012800090932D0480932C0462E371E08DE194E04F
:101290000E94D00469E471E08AEC92E00E94D004DC
:1012A0006FE171E080ED92E00E94D00464E271E0B1
:1012B00086ED92E00E94D00469E371E08CED92E04B
:1012C0000E94D00461E371E082EE92E00E94D004BB
:1012D00069E271E088EE92E00E94D0046EE371E072
:1012E0008EEE92E00E94D0046EE271E084EF92E014
:1012F0000E94D00460E371E08AEF92E00E94D00483
:1013000063E371E080E093E00E94D00463E471E065
:1013100086E093E00E94D00468E371E08CE093E003
:101320000E94D00463E571E082E193E00E94D00462
:101330006BE271E088E193E00E94D00464E371E025
:101340008EE193E00E94D0046DE371E084E293E0CB
:101350000E94D00462E471E08AE293E00E94D0042B
:101360006AE271E080E393E00E94D0046FE271E0F2
:1013700086E393E00E94D0046AE471E08CE393E09A
:101380000E94D00468E471E082E493E00E94D004FB
:1013900067E471E088E493E00E94D00462E571E0C4
:1013A0008EE493E00E94D0046CE471E084E593E065
:1013B0000E94D00461E571E08AE593E00E94D004C8
:1013C00066E571E080E693E00E94D0046BE571E091
:1013D00086E693E00E94D0046DE571E08CE693E030
:1013E0000E94D0046FE571E082E793E00E94D00490
:1013F00061E671E088E793E00E94D00463E671E063
:101400008EE793E00E94D00465E671E084E893E003
:101410000E94D00467E671E08AE893E00E94D0045D
:1014200069E671E080E993E00E94D0046BE671E028
:1014300086E993E00E94D0046DE671E08CE993E0C8
:101440000E94D0046FE671E082EA93E00E94D0042B
:1014500061E771E088EA93E00E94D00463E771E0FD
:101460008EEA93E00E94D00465E771E084EB93E09C
:101470000E94D00467E771E08AEB93E00E94D004F9
:1014800069E771E080EC93E00E94D0046BE771E0C3
:1014900086EC93E00E94D0046DE771E08CEC93E061
:1014A0000E94D0046FE771E082ED93E00E94D004C7
:1014B00061E871E088ED93E00E94D00463E871E098
:1014C0008EED93E00E94D00465E871E084EE93E035
:1014D0000E94D00467E871E08AEE93E00E94D00495
:1014E00069E871E080EF93E00E94D0046BE871E05E
:1014F00086EF93E00E94D0046DE871E08CEF93E0FA
:10150000DF91CF911F910F910C94D004CF93DF9373
:10151000C2E0D4E02697CE010E94D50283E0C63611
:10152000D807C1F7C6E6D3E02697CE010E94D502C0
:1015300082E0CA3CD807C1F78DE194E00E94D50251
:101540008CE294E00E946202C8ECD2E02C97CE01BB
:1015500006960E94D502CE010E94D50281E0C039D4
:10156000D807A1F781E594E0DF91CF910C94D502E3
:101570002F923F924F925F926F927F928F929F92A3
:10158000AF92BF92CF92DF92EF92FF920F931F9391
:10159000CF93DF93CDB7DEB7CA1BDB0B0FB6F89442
:1015A000DEBF0FBECDBF09942A88398848885F8482
:1015B0006E847D848C849B84AA84B984C884DF80F3
:1015C000EE80FD800C811B81AA81B981CE0FD11DD7
:1015D0000FB6F894DEBF0FBECDBFED010895EE0F3C
:1015E000FF1F0590F491E02D09940F931F93CF9363
:1015F000DF938230910510F482E090E0E09159048D
:10160000F0915A0430E020E0B0E0A0E0309799F487
:101610002115310509F44AC0281B390B2430310546
:10162000D8F58A819B816115710589F1FB0193834E
:101630008283FE0111C040815181028113814817CC
:101640005907E0F04817590799F4109761F012967E
:101650000C93129713961C933296CF01DF91CF9182
:101660001F910F9108950093590410935A04F4CFD9
:101670002115310551F04217530738F0A901DB015C
:101680009A01BD01DF01F801C1CFEF01F9CF9093BD
:101690005A0480935904CDCFFE01E20FF31F8193CA
:1016A00091932250310939832883D7CF2091570451
:1016B00030915804232B41F4209102013091030111
:1016C0003093580420935704209100013091010178
:1016D0002115310541F42DB73EB7409104015091D9
:1016E0000501241B350BE0915704F0915804E217D3
:1016F000F307A0F42E1B3F0B2817390778F0AC0135
:101700004E5F5F4F2417350748F04E0F5F1F509311
:10171000580440935704819391939FCFF0E0E0E009
:101720009CCFCF93DF930097E9F0FC0132971382AF
:101730001282A0915904B0915A04ED0130E020E0EA
:101740001097A1F420813181820F931F20915704BB
:10175000309158042817390709F061C0F0935804F4
:10176000E0935704DF91CF910895EA01CE17DF0788
:10177000E8F54A815B819E0141155105B1F7E90108
:10178000FB83EA8349915991C40FD51FEC17FD07DC
:1017900061F4808191810296840F951FE9019983FC
:1017A0008883828193819B838A83F0E0E0E01296B4
:1017B0008D919C9113970097B9F52D913C911197BC
:1017C000CD010296820F931F209157043091580447
:1017D0002817390739F6309751F510925A041092AC
:1017E0005904B0935804A0935704BCCFD383C28349
:1017F00040815181840F951FC817D90761F44E5F4E
:101800005F4F88819981480F591F518340838A8196
:101810009B81938382832115310509F0B0CFF0932A
:101820005A04E09359049ECFFD01DC01C0CF13821E
:101830001282D7CFB0E0A0E0E0E2FCE00C94BA0A5C
:101840008C01009751F4CB010E94F50A8C01C8016C
:10185000CDB7DEB7E0E10C94D60AFC01E60FF71F26
:101860009C0122503109E217F30708F49DC0D90109
:10187000CD91DC911197C617D70798F0C530D105E7
:1018800030F3CE0104978617970708F3C61BD70BD2
:101890002297C193D1936D937C93CF010E94910BBA
:1018A000D6CF5B01AC1ABD0A4C018C0E9D1EA091D7
:1018B0005904B0915A04512C412CF12CE12C109771
:1018C00031F580915704909158048815990509F0D5
:1018D0005CC04616570608F058C0809100019091F0
:1018E0000101009741F48DB79EB7409104015091DA
:1018F0000501841B950BE817F90708F055C0F09314
:101900005804E0935704F90171836083A0CF8D914F
:101910009C91119712966C90129713967C90139746
:10192000A815B90559F56C0142E0C40ED11CCA14C2
:10193000DB0420F1AC014A195B09DA011296159714
:1019400080F06282738251834083D9016D937C93CE
:10195000E114F10471F0D7011396FC93EE93129702
:1019600076CF22968C0F9D1FF90191838083F3011E
:10197000EFCFF0935A04E093590469CF4816590603
:1019800008F42C017D01D3019ACFCB010E94F50A06
:101990007C01009749F0AE01B8010E94D70CC80144
:1019A0000E94910B870153CF10E000E050CFFB0164
:1019B000DC0102C001900D9241505040D8F70895CB
:1019C000FB01DC018D91019080190110D9F3990B75
:1019D0000895FB01DC0101900D920020E1F70895CC
:1019E00010E0C2E6D0E004C0FE010E94EF0A21969A
:0A19F000C336D107C9F7F894FFCF02
:1019FA0000005B048000000000005604DA010702C0
:101A0A00D901496E76616C696420436F646500315F
:101A1A003030300031303130003030313000303049
:101A2A003030003031313100303130300030313136
:101A3A003000313130310030303031003130303126
:101A4A000031303131003131303000410042004341
:101A5A00004400450046004700480049004A004B40
:101A6A00004C004D004E004F0050005100520053F0
:101A7A00005400550056005700580059005A0000FB
:00000001FF
